:020000040800F2
:10000000B84F002001030008090300080B03000893
:100010000D0300080F030008110300080000000092
:10002000000000000000000000000000390200088D
:100030001503000800000000B1020008ED020008EE
:100040001B0300081B0300081B030008F18F0008B6
:100050001B0300081B0300089D430008BD43000864
:10006000C5430008CD430008D54300081B03000822
:100070001B0300081B0300081B0300081B030008E8
:100080001B0300081B0300081B0300081B030008D8
:100090001B0300081B0300081B030008DD430008C6
:1000A0001B0300081B0300081B0300081B030008B8
:1000B0001B0300081B030008E1A800081B0300083D
:1000C0001B0300081B0300081B0300081B03000898
:1000D0001B0300081B0300081B03000881AE000877
:1000E000A54300081B0300081B03000800F002F8EA
:1000F00000F05CF80AA090E8000C82448344AAF166
:100100000107DA4501D100F051F8AFF2090EBAE863
:100110000F0013F0010F18BFFB1A43F0010318473B
:100120007880010098800100103A24BF78C878C117
:10013000FAD8520724BF30C830C144BF04680C60ED
:10014000704700000023002400250026103A28BF35
:1001500078C1FBD8520728BF30C148BF0B60704739
:10016000662913F04684642900F07A81752900F02D
:100170007781782900F0B081632900F09E87732988
:1001800000F0A387002070471FB500F0A2FF040015
:100190000020002112F094FDE0601FBD10B510BDDD
:1001A00003B4FFF7FBFF03BC01F092F800F0CCF8BA
:1001B0001146FFF7E9FF11F0A7F80448002111F0FC
:1001C00069F911F0B3F800F053FA00004000002084
:1001D00080F309887047EFF309807047684680F321
:1001E000098804480078C00714BF0220032080F368
:1001F00014887047606B0108DFF818C0EFF30583BF
:100200001B0618BF6047EFF31483DB0708BF604786
:1002100000DF704795150108DFF818C0EFF305837C
:100220001B0618BF6047EFF31483DB0708BF604766
:1002300000DF704779170108EFF30980816911F831
:10024000021CF1B990E80F10E047EFF3098C8CE83D
:100250000700144B93E8060091420FD039B12CE906
:10026000F00FC1F824C00CB411F0BAFD0CBC1A6038
:10027000D2F824C0BCE8F00F8CF309886FF0020EAE
:10028000704710B5084A1268914209D8074C54F8D3
:10029000214090E80F10A047EFF3098C8CE80F0085
:1002A00010BD000008010020D41A0008D41A00086C
:1002B00011F032FC0C4B93E80600914210D0EFF3A2
:1002C000098C2CE9F00FC1F824C00CB411F088FDA2
:1002D0000CBC1A60D2F824C0BCE8F00F8CF309887B
:1002E0006FF0020E704700000801002011F03EFE82
:1002F000E0E7000011F020F911F038FEDAE7000025
:100300000948804709480047FEE77047FEE7FEE7D7
:10031000FEE7FEE7FEE7FEE7FEE7FEE704480549E5
:10032000054A064B70470000F9A70008ED000008D9
:10033000B8490020B84F0020B84B0020B84B00202F
:1003400000487047584900207546FFF7F9FFAE4650
:1003500005006946534620F00700854618B020B5D1
:10036000FFF7DCFFBDE820404FF000064FF000072C
:100370004FF000084FF0000B21F00701AC46ACE84D
:10038000C009ACE8C009ACE8C009ACE8C0098D46BA
:10039000704700000FB41CB5074B06AA7B446946A2
:1003A0000090059800F067FE0020694600F076FE98
:1003B0001CBC5DF814FB0000FD0C000070B5044689
:1003C00085690068C10601D5302600E02026C007F7
:1003D00008D070BDD4E9012130469047206A00F171
:1003E000010020626D1EF5D570BD70B504468569AB
:1003F0000078C00708D170BDD4E9012120209047C2
:10040000206A00F1010020626D1EF5D570BD70B547
:100410000C460546012A05D02878800600D5EA69F1
:10042000002302E0012305E05B1C934202D2E05C62
:100430000028F9D1A869E618C01AA861286A1844EA
:1004400028622846FFF7BAFF04E0D5E9012114F835
:10045000010B9047B442F8D32846FFF7C6FF70BDA2
:100460002DE9F0410646002410687529314616A58D
:1004700011D0AFF30080002803DAC0F1000013A50B
:1004800007E031688A0701D511A502E0490704D5C4
:1004900010A5012401E0AFF3008000210A2306F13A
:1004A000240707E0B0FBF3F203FB1200303078546E
:1004B0001046491C0028F5D123462A463046BDE89F
:1004C000F04100F067BB0000000000002D000000BC
:1004D0002B0000002000000070B504460D462146A8
:1004E0001068AFF300802188090502D5104A7A44CC
:1004F00002E00F4A7A440E32002104F1240307E09F
:1005000000F00F064FEA1010965D5E5401F10101F4
:100510000028F5D103462078000704D5702D02D0BD
:1005200009B1113202232046BDE8704000F032BB11
:10053000427601002DE9F05F894604464FF0000A3B
:10054000DFF828B1FB44C0F820A02046E1688847C6
:1005500000287CD0252806D0D4E901219047206AC4
:10056000401C2062F1E700255F462046E16888478D
:100570002028064608DB312E06D207EB060010F8CD
:10058000200C08B10543F0E7A80701D525F00405C4
:10059000C4F81CA00027C4F818A02A2E09D03046A1
:1005A0000CF081F938B304EB8708303EC8F81860C6
:1005B00019E059F8041B204604EB87029161E168B9
:1005C0008847012F064618D1E069002820DA25F077
:1005D00020051DE0D8F8180000EB800006EB400075
:1005E0003038C8F818002046E168884706460CF005
:1005F0005AF90028EED1012F0AD02E2E08D120461C
:10060000E16888477F1C0646022F45F02005C4DBC1
:10061000A069002803DA404245F00105A061E8071F
:1006200001D025F0100596B1A6F14100192802D895
:10063000203645F400654A463146204625604D4641
:10064000FFF78EFD60B1012807D0ED1D00E009E045
:1006500025F0070000F1080977E705F1040974E7C0
:10066000304679E7206ABDE8F09F0000147601006B
:100670000446AFF300802046FFF792FD40EA0103F5
:10068000024630B59B0710D14FF0013400E008C29C
:1006900008C91D1B9D4315EAC41FF8D013F0FF01C4
:1006A00002F8011B0DD01B0AF8E711F8013B002BE3
:1006B00002F8013B05D011F8013B002B02F8013B89
:1006C000F3D130BD10B5431C02E010F8011B71B12D
:1006D0008107FAD14FF0013202C88C1A8C4314EA18
:1006E000C211F9D0C01A0A0603D0C01E10BDC01A2C
:1006F00010BD0A0401D0801E10BD0902FCD0401EAE
:1007000010BD40EA010370B59B072ED14FF00136B2
:10071000042A2AD308C810C9121F9D1B9D4315EA3D
:10072000C61517D0D8B2E1B2401A50EA056110D10F
:1007300098B2A1B2401A50EA05410AD123F07F4095
:1007400024F07F41401A50EA052102D1180EA0EB97
:10075000146070BDA342DBD018BA21BA884201D917
:10076000012070BD4FF0FF3070BD0AB9002070BD90
:1007700010F8013B11F8014B63B1A3420AD1521E9C
:1007800008D010F8013B11F8014B1BB1A34201D175
:10079000521EEDD1181B70BD421E12F8013F002BF6
:1007A000FBD111F8013B002B02F8013BF9D1704756
:1007B000032A40F2308010F0030C00F0158011F88D
:1007C000013BBCF1020F624498BF11F801CB00F865
:1007D000013B38BF11F8013BA2F1040298BF00F8B9
:1007E00001CB38BF00F8013B11F0030300F0258076
:1007F000083AC0F0088051F8043B083A51F804CB9D
:10080000A0E80810F5E7121D5CBF51F8043B40F862
:10081000043BAFF30080D20724BF11F8013B11F86D
:1008200001CB48BF11F8012B24BF00F8013B00F8B1
:1008300001CB48BF00F8012B704710B5203AC0F03B
:100840000B80B1E81850203AA0E81850B1E81850D1
:10085000A0E81850BFF4F5AF5FEA027C24BFB1E80E
:100860001850A0E8185044BF18C918C0BDE810407F
:100870005FEA827C24BF51F8043B40F8043B08BF88
:100880007047D20728BF31F8023B48BF11F8012B4F
:1008900028BF20F8023B48BF00F8012B70474FF0FB
:1008A00000020429C0F0128010F0030C00F01B803D
:1008B000CCF1040CBCF1020F18BF00F8012BA8BF4B
:1008C00020F8022BA1EB0C0100F00DB85FEAC17C0F
:1008D00024BF00F8012B00F8012B48BF00F8012BC2
:1008E00070474FF0000200B51346944696462039F3
:1008F00022BFA0E80C50A0E80C50B1F12001BFF4D9
:10090000F7AF090728BFA0E80C5048BF0CC05DF83E
:1009100004EB890028BF40F8042B08BF704748BF8C
:1009200020F8022B11F0804F18BF00F8012B704700
:1009300030B503681C1404EB21459BB289B21944FD
:1009400095FBF2F402FB145301EB034191FBF2F32C
:1009500002FB131101E05B1E11440029FBDB016067
:1009600003EB044030BD2DE9F04704464FF0FF3A59
:1009700086B00068029060680390A0680490E06808
:100980000190206900906569B5F1804F7EDCB5F17A
:10099000404F7BDB3C22002102A8FFF7C9FF3C222D
:1009A000014603A8FFF7C4FF1822014604A8FFF779
:1009B000BFFF411E40F2B55201A8FFF7B9FF0C225C
:1009C000064668460021FFF7B3FF00EB8600284487
:1009D0003E4D00267D440FE09A1A491CCDE90012D5
:1009E000022902D00C2907D104E0810704D0521C4F
:1009F000019201E0401C00960099019B6A5C9A42BA
:100A0000EADD012906D11C2B04D1810702D0022185
:100A1000CDE90016A0F146018B2940D20199009B37
:100A200000220F4602E0AE5C521C31449A42FADBCF
:100A3000012B02DD820700D0491E40F2B55540F27D
:100A40006D16C21700EB927292106A4300F0030514
:100A500005FB062285070A4400D1521E049D02EBC5
:100A60004206DDF80C80A94605EBC605184EC5EB1D
:100A70000515DDF808C008EB850535442E14ADB228
:100A8000C6EB0616C5EB0515B60000E007E00CEB5B
:100A9000850506EB154666F31F45360C03D0504618
:100AA00006B0BDE8F0877F1CC4E90430521C072063
:100AB00092FBF0F304F1180600FB1320A6E80304F0
:100AC0002846C4E90297C4E900C8E9E79571010026
:100AD000A039CEFD70B50C46016800204A1C34D008
:100AE00040F2B5553C23B1FBF3F203FB1211216038
:100AF000B2FBF3F103FB112218236260B1FBF3F2A6
:100B000003FB1211A16046F2E0310A440721B2FB57
:100B1000F1F301FB1321B2FBF5F305FB1322A161F5
:100B20009900B2F5B77F06D3521EAD10B2FBF5F3B4
:100B3000194405FB13220F4BE261616189077B4475
:100B40000CD03B2A0AD3521C08E02C212046FFF788
:100B5000C8FE0120E0600AE0521A401C195C914274
:100B6000FAD9521CC4E903204FF0FF30206220461E
:100B700070BD00002B70010070477047704710B5C2
:100B800000F0ACFA006810BD10B5044600F0A6FAFB
:100B9000046010BD2DE9F0470D4699469246044683
:100BA00000F124080168880604D5E06921F01001ED
:100BB000216000E00120A84202DDA0EB050700E073
:100BC0000027A16907EB050202EB0900A1EB000079
:100BD000A0612078C00602D42046FFF7EFFB002674
:100BE00008E0D4E901211AF806009047206A401C69
:100BF000761C20624E45F4DB2078C0060AD52046DC
:100C0000FFF7DCFB06E0D4E9012130209047206AA1
:100C1000401C2062381EA7F10107F4DC07E0D4E98C
:100C2000012118F805009047206A401C2062281E08
:100C3000A5F10105F3DC2046FFF7D7FB207800067D
:100C400002D50220BDE8F0870120FBE770472DE9BF
:100C5000FF4F0C461E464FF0FF378BB0D2E9000124
:100C6000DDF860800A908A46C1F30A5505B93D4611
:100C7000002108464FF00000BAF1000F00F44000D8
:100C800005DA00EB80004FF4400101EA50004FEA22
:100C90009059B9F1010F00DDB9460A9850EA4A00AF
:100CA0000ED044F61050A5F2FF3545432F14B8F18D
:100CB000000F1ED07542291E1EDDC9F100021CE086
:100CC000B8F1010F4FF0000001D0302103E0F243F2
:100CD00005E02154401CB042FBDB304600220021DD
:100CE00021540B99C1F80880C1E900200FB0BDE87C
:100CF000F08FBD1B6D1CDEE74A4600DA694206A88C
:100D000000F074FA06AB07CB03AB07C350460A9951
:100D100000F025FB8DE80700A0F500501F3800907B
:100D20000398002D09DD42F21F014A46084403A939
:100D30000390684600F084FD08E0A0F500504A46A4
:100D40001F3803A90390684600F08EFD8DE8070068
:100D50000004000C03D04FF0FF30410800E01046C3
:100D6000B8F1000F03D00022009215461FE0751E57
:100D700006D400F0B5F902F1300262556D1EF8D5C7
:100D8000B3460122084302D000227F1C04E02078F1
:100D9000302801D100227F1E002A099787D01DE04C
:100DA000112D07DA00F09CF9303262556D1C50EAC3
:100DB0000102F5D108430FD10021681E05E0235C34
:100DC000625C6354491C2254401E8142F7DBAB46EF
:100DD000A81B401E099001E0009848B1002004F8CB
:100DE0000B000B98099AC0F80880C0E9002B7DE73A
:100DF00011264FF000085AE72DE9F04F88460446C7
:100E0000D21D22F0070191B0D1E90001CDE90A011C
:100E10000BF0A7FC02460B98C00F01D02D2007E075
:100E20002068810701D52B2002E0202101EAC000C3
:100E3000032A099001D0072A05DB034641462046D4
:100E400000F094F90FE12078800601D5E06900E018
:100E50000620B8F1650F814606D0B8F1660F18D0AC
:100E6000B8F1670F72D132E00020B9F1110F009094
:100E700001DB112301E009F101030AAA01A90CA871
:100E8000FFF7E5FEDDE90C70002609F10105834658
:100E900048E001204B4600904FF000470AAA01A904
:100EA0000CA8FFF7D4FEDDE90DB00C995D460026D5
:100EB00018B909F1010001EB0005B9EB050003D4F5
:100EC000C0F1FF3609F10105A5EB09002BE0B9F1EE
:100ED000010F01DA4FF001090020B9F1110F009064
:100EE000484601DD112300E003460AAA01A90CA827
:100EF000FFF7ADFEDDE90C704D46002683462078F5
:100F000000070AD4AB4500DA5D4601A8012D04DDD7
:100F1000411911F8011C302907D04F4502DA17F1A9
:100F2000040F04DA0120824610E06D1EEEE7002F68
:100F300002DCED1B3E4403E0781CA84200DD0546C0
:100F4000A7EB060000F1010A4FF0004720780007E8
:100F500003D4AA4501DB4FF0FF3A0021B7F1004F5F
:100F60000DF143088DF8431023D002202B23002FCE
:100F700001DA7F422D234FF00A0C011EA0F101007F
:100F800000DC4FB197FBFCF10CFB11720F4602F134
:100F9000300208F8012DF0E7A8F101000370218864
:100FA000090501D5452100E06521A0F1010800F8FF
:100FB000011C09980FA9A1EB080707F1070700B169
:100FC000012000EB050101EBEA70A1693844A1EBB7
:100FD0000000A0F10100A0612078C00602D42046E4
:100FE000FFF7ECF9099830B1D4E901219047206A64
:100FF00000F1010020622078C00620D52046FFF7CE
:10100000DDF91CE0002E04DBB34502DD01A8805DA4
:1010100000E03020D4E901219047206A761C401C72
:10102000BAF1010A20620AD100F053F8C0680168E1
:10103000405CD4E901219047206A401C2062281EB0
:10104000A5F10105DEDC07E0D4E9012118F8010B68
:101050009047206A401C2062381EA7F10107F3DC8C
:101060002046FFF7C2F9022011B040E601694A1C90
:1010700002610878704700B58FB0CDE901310021D9
:10108000059105497944CDE9031011466846FFF7FB
:1010900051FA0FB000BD0000E5FFFFFF0A6802F83B
:1010A000010B0A60704710B5436913B1AFF30080BC
:1010B00001E0FFF7ACF9012010BD127800F1240126
:1010C0000A7000224A700122EDE711684FF0FF32EA
:1010D000E9E710B5FFF734F9203010BD0BF056BB2F
:1010E00030B5B0F10A024FEA900E71F100034EEAFA
:1010F000817EB0EB0E0061EB91014FEA101E4EEACB
:10110000017E10EB0E0041EB11114FEA102E4EEA5A
:10111000016E10EB0E0041EB11214FEA104E4EEA2A
:10112000014E10EB0E0041EB1141401841F100015E
:101130004FEAD00040EA41704FEAD10110EB800540
:101140004FEA810444EA907444EB01046D1944EBC6
:101150000404521BA3414FF0000348BF0A3200D5DC
:1011600030BD401C41F1000130BD00002DE9F041CF
:101170001F46044603260168072A01F4006004DBC9
:1011800008B116A505E016A503E008B115A500E015
:1011900015A521F010002060A069C01EA0610FB14C
:1011A000401EA0612046FFF709F94FB1D4E90121A3
:1011B00038469047206A401C2062C01C206206E02E
:1011C000206AFAE7D4E9012115F8010B9047761E51
:1011D000F8D22046FFF709F9BDE8F0814E414E00F4
:1011E0006E616E00494E4600696E66002DE9F0475B
:1011F000814616468AB035487844D0E90023806895
:101200000092CDE90130314878440C38D0E902230E
:10121000006903924FF03702CDE9043041F69B306C
:10122000014491FBF2F0A0F1800502FB10141B3C7D
:1012300002D56442012000E00020DFF890A0804643
:101240000027FA44AAF1C60A0DE0E00709D03246A9
:10125000684607EB47010AEB810100F005FB8DE8CA
:10126000070064107F1C002CEFD1184F7F44B43F5F
:1012700017E0E80713D007EB04100DF1180A90E807
:101280000E00AAE80E00C068F04201D1981908903B
:10129000324606A903A800F0E7FA03AB07C36D10B6
:1012A000641C002DE5D132466946B8F1000F03A851
:1012B00002D000F0C5FA01E000F0D6FAC9E9000159
:1012C000C9F808200AB0BDE8F0870000FC690100F9
:1012D00001491820ABBEFEE7260002004FF0013C9A
:1012E00050F8042B51F8043B9A4221D1A2EB0C0395
:1012F000934313EACC1317D150F8042B51F8043B55
:101300009A4215D1A2EB0C03934313EACC130BD1F1
:1013100050F8042B51F8043B9A4209D1A2EB0C037C
:10132000934313EACC13DBD04FF00000704700BFAB
:10133000D01A01BAB1FA81F101F0180122FA01F0D4
:10134000CB40C1F12001DBB2C0B2C01A2CFA01F3CC
:10135000D11A914311EAC311E6D1704770475FEA91
:10136000400C08BF91F0000F4FEA8C234FEAC122D6
:1013700043EA51514FEA1C5018BF00F5F0404FEAC4
:10138000300018BF41F000415FEA6C5C00F029803A
:10139000BCF1FF3F08BF40F080407047130C06BF10
:1013A00012044FF0100C4FF0000C130E04BF120289
:1013B0000CF1080C130F04BF12010CF1040C930F75
:1013C00004BF92000CF1020CD30F04BF52000CF1C9
:1013D000010C11464FF00002A0F11F00A0EB0C0021
:1013E000704711F0004F08BF704731F000413FF4E3
:1013F000D5AF0B0C06BF09044FF0100C4FF0000CDA
:101400000B0E04BF09020CF1080C0B0F04BF0901FD
:101410000CF1040C8B0F04BF89000CF1020CCB0FF4
:1014200004BF49000CF1010CCCF12003A0EB0C002F
:1014300022FA03F302FA0CF241EA030100F101007F
:10144000704720F07F4C80EA030023F07F47ACEB2D
:10145000070303F57C5300F0004003F1FF032DE97F
:1014600080494FEA154B09B44FEA144325EA0B4E65
:1014700024EA03480FF2042606EB132749083E78B6
:101480005FEA320203FB0667C7F5000707FB06F6B3
:101490004FEA54374FEAD64606F1020607FB066CC0
:1014A000CCF1005C4FEA1C472CEA074C07FB06F422
:1014B0000CFB06F504EB15464FEA961634BF0020E8
:1014C0004FF000404FEAD13706FB07FC4FEA1C4CB7
:1014D0000CFB0BF7D21B03FB0CF761EB07010CFBBA
:1014E0000EF7B0EB074072EB17420CFB08F734BF66
:1014F000A2EB0742B2EB074261EB17414FEA0C4403
:101500004FEA910706FB07FC4FEA1C4C0CFB0BF75C
:10151000B0EBC74072EB573203FB0CF734BFA2EBC2
:10152000C742B2EBC74261EB57310CFB0EF7B0EB91
:10153000C70072EB57720CFB08F734BFA2EBC7026F
:10154000B2EBC70261EB5771039F4FEA816141EA39
:10155000921104EBCC044FEAD1374FEA826206FBCA
:1015600007FC42EA90124FEA80604FEA1C4C0CFBE9
:101570000BF7D21B03FB0CF761EB07010CFB0EF71B
:10158000B0EB074072EB17420CFB08F734BFA2EB3D
:101590000742B2EB074261EB17414FEA8C554FEA25
:1015A000910704EB9C2406FB07FC4FEA1C4C0CFB48
:1015B0000BF7B0EBC74072EB573203FB0CF734BFAD
:1015C000A2EBC742B2EBC74261EB57310CFB0EF7FF
:1015D000B0EBC70072EB57720CFB08F734BFA2EBFD
:1015E000C702B2EBC70261EB577115EB4C254FEA0E
:1015F000816141EA92114FEA82624FEAD13742EAB1
:10160000901206FB07FC44F100044FEA80604FEAA9
:101610001C4C0CFB0BF7D21B03FB0CF761EB070117
:101620000CFB0EF7B0EB074072EB17420CFB08F710
:1016300034BFA2EB0742B2EB074261EB174115EB57
:101640001C154FEA813141EA92414FEA823242EA67
:1016500090424FEA80304FEA0C7644F1000448EAA9
:1016600003434EEA0B484FF0000EB2EB080C71EB4F
:10167000030724BF624639464EEB0E0E4FF0000BB7
:101680000018524149414BEB0B0BB2EB080C71EBCC
:1016900003077BF1000B24BF624639464EEB0E0E6A
:1016A0004FF0000B0018524149414BEB0B0BB2EBD2
:1016B000080C71EB03077BF1000B24BF624639462F
:1016C0004EEB0E0E51EA020718BF46F0010616EB6C
:1016D0000E7655F1000254F1000103D5BDE88901F1
:1016E000BDE80088BDE88901BDE80048B61952414F
:1016F00041EB0101A3F10103704780807F7E7D7C77
:101700007B7A7978777676757473727171706F6E93
:101710006E6D6C6C6B6A6A6968686766666564643E
:10172000636362616160605F5F5E5E5D5D5C5C5BC8
:101730005B5A5A5959585857575656555555545437
:10174000535352525251515050504F4F4F4E4E4D95
:101750004D4D4C4C4C4B4B4B4A4A4A4949494848E1
:101760004847474747464646454545444444444321
:1017700043434342424242414141002B26D4770039
:1017800021D01CB54FEA370703B44FF010004FF0DB
:1017900010014FF000000FBCBDE810400BF1010B31
:1017A000BBF1010F08BF5FEA170722BF12F1010268
:1017B00011F101014FF0004143F1000300F000403E
:1017C00043EA00007047F9D35708DAE746EA0646CD
:1017D00013F1400F4FEA16461FDD13F1200FDFBF54
:1017E00016430A46002120335B42C8D0C3F12007CC
:1017F00046EA064602FA07F74FEA164646EA0706A1
:10180000C3F1200722FA03F201FA07F721FA03F1E4
:101810004FF0000342EA0702B1E746EA020646EA51
:1018200006464FEA164646EA0106BCBF46EA0646A9
:10183000360C4FF000034FF000024FF000019EE71E
:101840002DE9C048934630B491E8380007C831EA22
:10185000400C48BF34EA430C03D5FFF7F2FDFFF715
:101860008CFFF0BCBDE800882DE9C048934630B439
:1018700091E8380007C810F0804F08BF13F0804F80
:1018800003D100F005F8FFF778FFF0BCBDE8008851
:1018900020F07F4780EA030023F07F4C07EB0C0326
:1018A000A3F57C5300F00040A3F1FE0392F0000F7B
:1018B00000F0B38095F0000F00F077802DE901492A
:1018C0004FEA11404FEA144621EA004800FB06FCAB
:1018D00024EA064708FB06F607FB08F800FB07F7B3
:1018E00018EB06484CEB164C4FEA124B18EB074826
:1018F0004FEA15464CEB174022EA0B4E0BFB06FC59
:1019000025EA06470EFB06F607FB0EFE0BFB07F764
:101910001EEB064E4CEB164C4FF000061EEB074E2E
:101920004CEB174B18EB0B0840F1000018EB0E0BBB
:1019300058EB000840F100008F1A4FF000013CBF47
:10194000C943661B14BFB5EB040C00213CBFC9435F
:10195000F61B4FEA17444EEA8E0E27EA04454FEA7B
:101960001C4704FB07622CEA074C05FB07F70CFB3E
:1019700005F604FB0CFC16EB074642EB174216EB90
:101980000C4642EB1C421BEB060658EB020241419F
:1019900046EA9E0601D5BDE80189B619524141EBE0
:1019A0000101A3F10103BDE801894FEA14454FEAA3
:1019B000114724EA054621EA074C05FB07F406FB1C
:1019C00007F70CFB06F105FB0CFC11EB074144EBA0
:1019D00017444FEA124711EB0C4144EB1C4422EA36
:1019E000074C05FB07F206FB07F70CFB06F605FBA9
:1019F0000CFC16EB074642EB174216EB0C4642EB8B
:101A00001C456A1854F1000148BF7047B61952418D
:101A100041EB0101A3F10103704795F0000F37D0AE
:101A20004FEA11424FEA144721EA024624EA074CE2
:101A300002FB07F106FB07F70CFB06F402FB0CFCAC
:101A400014EB074441EB17414FEA154714EB0C44E4
:101A500041EB1C4125EA074C02FB07F506FB07F7A3
:101A60000CFB06F602FB0CFC16EB074645EB174594
:101A700016EB0C4645EB1C42121951F1000148BF10
:101A80007047B619524141EB0101A3F101037047C0
:101A90004FEA14454FEA114724EA054621EA074C6C
:101AA00005FB07F106FB07F70CFB06F24FF00006FB
:101AB00005FB0CFC12EB074241EB174112EB0C4209
:101AC00051EB1C4148BF7047921841EB0101A3F153
:101AD000010370470000000007F092BC10B500221F
:101AE000074B114601EB810403EB440434F810402A
:101AF000491CC9B222441029F4D3C2F30F1010BDFF
:101B00003201002009498A6942F010028A6108B155
:101B1000491501E04FF0007105480161416821F06D
:101B2000F00141F0300141607047000000100240B8
:101B300000100140254910B508684FF6FF0210401B
:101B4000234A40F4E06010430860062004F062FA83
:101B5000072004F05FFA082004F05CFA092004F082
:101B600059FA0A2004F056FA172004F053FA1E20FE
:101B700004F050FA272004F04DFA08F061FE164AEE
:101B80001448D16941F00201D16100210180018531
:101B900040F65F13838501238382018446F260034C
:101BA00003838383818601878187A0F840100188A1
:101BB00041F001010180906940F001009061074807
:101BC000416841F44061416010BD00000CED00E04F
:101BD0000000FA050004004000100240000001402F
:101BE00008B5024908440090008808BD006C004018
:101BF00008B5024A10440090016008BD006C004026
:101C00000448007801284FF0000001D004F084BAA5
:101C100008F036BF280000200448017840780129E8
:101C200001D004F079BA08F02BBF00002800002092
:101C300070B515460E4604460BF0F6FE21461648D2
:101C4000FEF71CFD144800F077FA304600F028F942
:101C500064211248FEF723FE002229460F4800F0B7
:101C60005FF90F4C6070012000F008FA64210A4807
:101C7000FEF715FE64210948FEF711FE0BF0DCFEAD
:101C80006078142802D0172802D003E0012070BD2C
:101C90000BF0A5FE002070BDA44600207845002072
:101CA000AA00002010B504460BF0BEFE21460648EF
:101CB000FEF7E4FC044800F03FFA00F043FA044663
:101CC0000BF0BAFE204610BDA44600202DE9F041DD
:101CD0001C4615460E4607460BF0A6FE23462A462E
:101CE0003146384600F07CF8142804D00BF0A4FEEE
:101CF0000020BDE8F0810BF09FFE0120F9E7000015
:101D00002DE9F0411C4615460E4607460BF08CFEA9
:101D100023462A463146384600F092F8084C607057
:101D20000BF08AFE6078142802D0172803D004E054
:101D30000120BDE8F0810BF052FE0020F9E7000021
:101D4000AA00002010B504460BF06EFE21460B4899
:101D5000FEF794FC094800F011F909494870012088
:101D600000F08CF964210548FEF799FD64210548CF
:101D7000FEF795FDBDE810400BF05EBEA4460020C6
:101D8000AA0000207845002070B515460E4604468E
:101D90000BF04AFE21460F48FEF770FC0D4800F09C
:101DA0007AF90D4CA9B200226070304600F0B8F804
:101DB0006070012000F062F9607064210548FEF750
:101DC0006EFD64210548FEF76AFDBDE870400BF02A
:101DD00033BE0000A4460020AA0000207845002061
:101DE0002DE9F0411C4616460F4605460BF01CFE39
:101DF00029461048FEF742FC0E4800F09DF938468F
:101E000000F04EF8A1B20022304600F062F80A4C11
:101E10006070012000F032F964210648FEF73FFDB2
:101E200064210648FEF73BFD0BF006FE6078BDE836
:101E3000F0810000A4460020AA0000207845002080
:101E40002DE9F0411C4617460E4605460BF0ECFD09
:101E500029461048FEF712FC0E4800F06DF938468E
:101E600000F01EF8A1B20C4A304600F059F80A4CB6
:101E7000A41E6070012000F001F964210548FEF7FE
:101E80000EFD64210548FEF70AFD0BF0D5FD6078D4
:101E9000BDE8F081A4460020AC0000207845002079
:101EA00010B50446392010F0F9FEE0B210F001FF41
:101EB000C4F3072010F0FDFEC4F3074010F0F9FE54
:101EC000200E10F0F6FE10F0B9FEBDE810400AF04A
:101ED00057BB70B5064614460D463A2010F0DEFE9C
:101EE000E8B210F0E6FE280A10F0E3FE10F0A6FEBD
:101EF0000CB1002011E00AF043FB1D280FD1304641
:101F000000F052F905463B2010F0C8FE10F096FE96
:101F10002E44002CEFD0208828442080EBE770BDB1
:101F20002DE9F041064614460D463C2010F0B6FE61
:101F3000E8B210F0BEFE280A10F0BBFE10F07EFEE4
:101F40000CB1002020800C4F0AF01AFB1E2810D183
:101F5000304600F03CFA054638703D2010F09EFEF9
:101F600010F06CFE2E44002CEED0208828442080F7
:101F7000EAE7BDE8F0810000A800002010B50446A3
:101F800000F0C4F920785C2801D02F2803D100216B
:101F9000642000F032FABDE81040402000F096B90D
:101FA00010B505F0E3FD08B100F0CFF8BDE8104032
:101FB000302000F08BB9312000F088B910B5052031
:101FC0000CF090FC5A2000F081F9044605200CF03A
:101FD00089FC204610BD00002DE9F74F82B08346F2
:101FE00004980E46C700080E4FF0000AC1F30729F7
:101FF000C1F307480090562010F050FEF0B210F0E8
:1020000058FE484610F055FE404610F052FE00982B
:1020100010F04FFE049810F04CFE10F00FFE3C46FE
:1020200014E000BF0AF0ACFA05461E2801D07CB1CE
:1020300013E04021584600F0B4F9572010F02EFE6E
:1020400010F0FCFD641E0BF1400BA4B2002CE9D192
:102050000AF096FA054614280ED0162D09D0FFF77F
:10206000ADFF0AF1010000F0FF0ABAF1030FC2D17F
:10207000284605B0BDE8F08F1420FAE70146362067
:1020800000F017B910B508B100F040F9BDE81040F4
:10209000342000F01BB970B5054600F021F90400AA
:1020A0000DD00146284600F021F8412807D0142819
:1020B00003D0422800D1B32070BD432070BD281941
:1020C000BDE87040FFF7DEBF10B5044600F01EF912
:1020D00020785C2801D02F2803D10021642000F053
:1020E0008CF9BDE81040322000F0F0B870B505461C
:1020F00000200E46012401E0641CE4B2295D5C2945
:1021000013D02F2911D00029F6D100242844FFF73D
:10211000DBFF002C08D0B44206D041280AD0142896
:1021200006D0422800D1B32070BD641CE4B2EDE7B4
:10213000432070BD2046E1E7FF21FFF7D7BF2B20EA
:1021400000F054B8682000F045B810B5222010F017
:10215000A5FD10F09CFD044610F070FD204610BD5A
:1021600004480178012901D0002070470021017046
:1021700001207047380000202DE9F04110F087FD64
:10218000064610F084FD054610F081FD044610F06F
:102190007EFD074610F052FD46EA052040EA044065
:1021A00040EA0760BDE8F08170B50546272010F0D1
:1021B00075FD10F06CFD0400264607D010F067FD99
:1021C000641E05F8010B14F0FF04F7D110F036FD82
:1021D000304670BD10B504460C2010F05FFD20465F
:1021E00010F067FDBDE81040FFF7C6BF10B504460C
:1021F0000A2010F053FD204610F05BFD10F047FD63
:10220000044610F01BFD204610BD10B504464A20C0
:1022100010F044FDE0B210F04CFDC4F3072010F0C4
:1022200048FDC4F3074010F044FD002010F041FDCC
:1022300010F004FDBDE810400AF0A2B92DE9F0410C
:1022400015000F46804601D0002028704C2010F069
:1022500025FD384610F02DFD10F0F0FC0AF090F945
:102260000646142823D1272010F018FD10F00FFD8A
:1022700010F00DFD044610F00AFD10F008FD10F0FE
:1022800006FDFFF779FF014684B122464046FFF77D
:10229000A3FE064614280AD108EB442815B1287875
:1022A00020442870381B10F0FF07CFD13046BDE81E
:1022B000F08110B50C4610F0F1FC204610F0F9FC4E
:1022C00010F0BCFCBDE810400AF05AB910B510F08F
:1022D000E5FC10F0B3FCBDE810400AF051B9000075
:1022E000014600E0491C0A78002AFBD106E000BF45
:1022F00011F8012D5C2A03D02F2A01D08142F7D199
:10230000814200D0491C081AC0B2704770B505461A
:10231000012010F0C3FC10F0BAFC432828D22B2077
:10232000FFF764FF102823D22F2010F0B7FC002005
:1023300010F0BFFC3220FFF7C9FF142818D1CF20BE
:10234000FFF754FF040013D04C20FFF743FF00EBCE
:1023500004214C2000F051F85020FFF73BFF00EB28
:102360000421502000F049F80021702000F045F8C9
:102370002F2010F093FC2C7806E000BF15F8014FD9
:102380005C2C0AD02F2C08D0204610F092FC002C98
:10239000F4D1BDE8704010F051BC002010F089FC71
:1023A000F7E770B505460C462C2010F077FC204668
:1023B00010F07FFC3CB1287810F07BFC6D1C641E93
:1023C00014F0FF04F7D1BDE8704010F037BC70B5D1
:1023D00005462D2010F062FC10F059FC0400264642
:1023E00007D0287810F065FC6D1C641E14F0FF0403
:1023F000F7D110F023FC304670BD70B505460C4691
:102400000D2010F04BFC284610F053FCE0B210F009
:1024100050FCC4F3072010F04CFCC4F3074010F04C
:1024200048FC200E10F045FCBDE8704010F006BCE2
:1024300001200BF0E1BA10B503F0F8FD02F0A4FDA5
:1024400006F09EFFBDE81040FFF7F2BF10B504464E
:10245000012150200BF06CFBC8B100200BF000FBF9
:10246000207000200BF0FCFA607000200BF0F8FAEE
:10247000A07001200BF0F4FAE0700BF093FB002148
:1024800050200BF055FB0BF08DFB012010BD0BF025
:1024900089FB002010BDF8B50D4606460BF0D2FAB8
:1024A0006846FFF7D3FF040011D09DF801009DF8A6
:1024B000001000EB0120C0F30D0030809DF80300F8
:1024C0009DF8021000EB0120C0F38D0028800BF076
:1024D000C1FA2046F8BD000030B50E480E4C00236E
:1024E0000078042234F81010401CC0B20D460528B4
:1024F00000D3002034F810104D1BADB2521E2B44F7
:1025000012F0FF02F0D1C3F38F004FF4FA71484389
:1025100030BD0000000000202801002010B5044656
:10252000124911F061F8124910F0A8FE214611F08D
:102530005BF8104910F0A2FE214611F055F80E4943
:1025400010F09CFE214611F04FF80C4910F096FE59
:10255000214611F049F80A4910F090FE214611F089
:1025600043F8BDE81040074910F088BE92EBD72C25
:10257000EEC70B310DBDA2343E5ADE37774BBB3A66
:1025800045B8353D145C1C3F2DE9F0471F46904689
:102590008946054600240CF0D3F8064613488742C6
:1025A00002DA2846BDE8F087114890F8330018B1E8
:1025B0004846FFF7B3FF04464146384610F05EFE3A
:1025C000214611F0A1F9314611F00EF804460949EF
:1025D000484610F053FE084911F006F8294611F05C
:1025E00003F82146BDE8F04710F0BCBE6F12833AF5
:1025F000B44800203393884366A6CA422DE9F041CF
:102600001F4690460C4606460CF09AF805460F49C0
:10261000204610F033FE0E4910F0E6FF0446414616
:10262000384610F02BFE294610F0DEFF214610F050
:1026300099FE314610F0D8FF0649884202DA0020A0
:10264000BDE8F081BDE8F04110F04BB8339388430A
:1026500066A6CA426F12833A2DE9FF4F87B09046B3
:102660000F461D46182220496846FEF7E6F8002668
:10267000012440F2013B40F2035A40F2056900BFD9
:102680000BF0A4FA684602F05DFF58F8251017A376
:102690005A460A2007F0DEFC37F815100023524690
:1026A000484607F095FD2146684602F067FF04465C
:1026B000012807D0022C0ED0002CE1D10BB03046FF
:1026C000BDE8F08F2B4642463946079800F010F8D7
:1026D00007E00126D4E707EB45015246484601F0E2
:1026E000EFFF0028CCD0F4E7447501084C2F6D00B3
:1026F0002DE9FF4F8FB00020069092481F460E46EE
:10270000848831F8175008880C90B1F802B0B1F8FD
:1027100004A0B1F806904FF0010852F827008A494A
:1027200010F062FF4FF07C5110F0A8FD10F0DCFEBD
:1027300084490F9A01EB42010891888201210F9888
:1027400005F0FCF90BF042FA80A1002002F0CAFE6D
:10275000F580B580758035800F980CF005F80090F5
:102760007DA1002002F0BEFE002340F20352294664
:102770000A2007F02DFD7BA14FF4407002F0B2FE5D
:102780007AA340F2036240F20530009907F062FC40
:1027900077A14FF4C06002F0A5FE0F9805F0B8F9DC
:1027A000014640F2056007F041FD64200CF030F86E
:1027B0000028D1D00BF07AFE11285BD008DC01286C
:1027C0001AD0042873D0092872D0102813D106E03B
:1027D00021286ED0402808D041280CD16AE042F26E
:1027E0000F70854205D26D1C02E0632D01D96D1E6C
:1027F000ADB2012006908EE008986421808A48439B
:10280000079004214FF4407002F062FE40F2036230
:1028100007A940F2053001F061FF00287BD00120BC
:102820000690079810F098FE019095B1284610F098
:10283000E7FB514A514B10F0F7FB05460391009816
:1028400010F0F0FC2A46039B10F082FA10F04EFACA
:1028500002E04B4910F086FD014610F0FF4F06D014
:10286000019810F07FFD10F03FFE85B253E04FF469
:102870007A7550E040F60200844201D2641CA4B292
:10288000642111200EF06CFE50B138E0641CA4B23B
:10289000204610F061FE3B4910F0A6FE01F0AEFCB0
:1028A000032111200EF05CFE0028EFD027E036E077
:1028B0001BE020E0C82C01D9641EA4B26421412091
:1028C0000EF04EFE50B11AE0641EA4B2204610F085
:1028D00043FE2C4910F088FE01F090FC01214120BC
:1028E0000EF03EFE0028EFD009E040F29E708442D8
:1028F00005D2643402E0DC2C01D9143CA4B2204699
:1029000010F02AFE1F4910F06FFE01F077FC0D4811
:10291000848000F019FFB8F1000F7FF419AF002197
:102920000F9805F00BF90C983080A6F802B0A6F8C5
:1029300004A0A6F8069026F81750069813B0BDE834
:10294000F08F0000B448002000002041B5F7CAD441
:10295000C1F7C1BF00000000C1F7C1BFB1B6C2CA14
:102960003A000000C1F7C1BF3A0000004C2F6D00D3
:10297000CAE4B3F63A000000FCA9F1D24D62503F20
:1029800000007A440AD7233C2DE9F04F89B08346F2
:1029900020223A496846FDF750FF3949002001EBF3
:1029A000CB0701243C3740F203560890BBF1010FDE
:1029B00005D0BBF1020F02D040F2015A00E0B2464E
:1029C000304940F2052801EB4B0540F2056900BF94
:1029D0000BF0FCF8684602F0B5FD5946092007F0F7
:1029E0005DFDA98A28A35246404607F0F1FB3988CD
:1029F00000233246484607F0EBFB2146684602F0CA
:102A0000BDFD04000FD0012C24D0022C2DD0032CAE
:102A1000E7D132463946484601F052FE0028E0D060
:102A200001200890DDE7089800280AD0232117A08C
:102A300003F0B4FA062807D0072808D00124002C98
:102A4000C6D109B0BDE8F08F00F0BAFAF9E700F09E
:102A50004DFAF4E705F114015246404601F030FE0C
:102A60000028BED000F070FEBBE73946584600F0A3
:102A700015F80028ACD001200890A9E724750108BA
:102A800040480020B44800204C2F6D00B1A3B4E6AC
:102A9000B1EAB6A8CAFDBEDD203F00002DE9F04F27
:102AA000804600208BB00646099081460790CA48B0
:102AB0000D464FF0000B84885FEA080040F2035790
:102AC00005D0012852D0B8F1020F04D14EE040F2F7
:102AD00001590FF2083B0BF079F80121404605F04F
:102AE0002DF840460BF040FE0746B8F1000F3FD0EE
:102AF000BBA10020009702F0F5FC2988002340F2DA
:102B000003520A2007F064FBB8A14FF4407002F0B2
:102B1000E9FC5B464A46394640F2053007F09AFA2E
:102B2000B4A14FF4C06002F0DDFC404604F0F0FFB9
:102B3000014640F2056007F079FB64200BF068FE67
:102B40000028CED00BF0B2FC11287DD03FDC01284C
:102B500055D0042879D0092878D01028C1D12888E8
:102B600042F20F71884248D2401C45E0B946B0E7B6
:102B70000BF0AEFC82460BF0AFFD0146534600223F
:102B80003846FFF701FD8246009095A1002002F033
:102B9000A9FC2988002340F203520A2007F018FB01
:102BA00096A14FF4007002F09DFC5B464A465146E8
:102BB00040F2052007F04EFA8CA14FF4806002F03D
:102BC00091FC5B464A46394640F20540A6E721287B
:102BD0007DD040280CD0412883D1C82C01D9641E57
:102BE000A4B2642141200EF0BBFC002871D0DBE0D0
:102BF0002888632801D9401E2880012671E776487D
:102C0000B8F1000F00EB48004FF00401808A0790F4
:102C100033D04FF4407002F05BFC40F2035207A93E
:102C200040F2053001F05AFD0028E7D00126079850
:102C300010F092FC10F0F6FA724F734B3A4610F017
:102C4000F3F910F053F802E072E0BCE0A2E0824633
:102C50002888E8B310F0D4F93A466B4B10F0E4F949
:102C600007460391009810F0DDFA3A46039B10F0F6
:102C70006FF810F03BF8074649E04FF4007002F09F
:102C800027FC40F2015207A940F2052001F026FD81
:102C90000028B3D00126079810F05EFC10F0C2FAAD
:102CA0005A4A5B4B10F0C0F910F020F88246288891
:102CB000B0B110F0A5F9534A534B10F0B5F90746DF
:102CC0000391009810F0AEFA3A46039B02E067E0E9
:102CD0001CE057E010F03CF810F008F8074600E060
:102CE000574617F0FF4F09D04A49504610F07CFC78
:102CF000394610F037FB10F0F7FB01E04FF47A7023
:102D0000288040460BF030FD074631E7574617F064
:102D1000FF4F09D03F49504610F066FC394610F08D
:102D200021FB10F0E1FB01E04FF47A702880D8E637
:102D300040F60200844201D2641CA4B26421112036
:102D40000EF00EFC58B12FE0641CA4B2204610F027
:102D500003FC394610F048FC01F050FA00E02E4F19
:102D6000032111200EF0FCFB0028EDD01CE0641EB6
:102D7000A4B2204610F0F0FB394610F035FC01F00B
:102D80003DFA00E0244F012141200EF0E9FB00282C
:102D9000EDD009E040F29E70844205D2643402E036
:102DA000DC2C01D9143CA4B2204610F0D5FB1A4902
:102DB00010F01AFC01F022FA0748848000F0C4FCED
:102DC00009980028B3D00021404604F0B7FE0BB0AC
:102DD0003046BDE8F08F0000B44800204C2F6D0055
:102DE000C1F7C1BFB1B6C2CA3A000000B1EABFF62E
:102DF0003A000000CAE4B3F63A000000B9A4BFF6F6
:102E00003A000000FCA9F1D24D62503F9A9999997D
:102E10009999B93F00007A440AD7233C2DE9F0473D
:102E20002A49804601EB0800294990F824600124D2
:102E300001EBC800002500F13C0A012E15D0022E3E
:102E400042D1244FDFF890900AF0C0FE384602F0DD
:102E500079FB2146384602F091FB0446052831D221
:102E6000DFE800F006181E282C001A4F283FE9E77B
:102E7000002D29D0232119A003F090F8062805D0B1
:102E8000072821D1BDE8F04700F030B8BDE8F04791
:102E900000F096B809EB0612002304E00125D3E701
:102EA00009EB0612012351464046FFF7D5FB0028E7
:102EB000CAD0F3E709EB06120223F4E709EB061286
:102EC0000323F0E7002CBFD1BDE8F087B448002011
:102ED00040480020847501083C740108B1A3B4E6A1
:102EE000B1EAB6A8CAFDBEDD203F000010B506223B
:102EF00031494FF4807001F0AFFD2F4845F6A52110
:102F00004FF47A7482888A4203D0E20002804480BF
:102F1000818072222949802001F09EFD274845F6D4
:102F2000A422B0F87010914244D046F6B321A0F824
:102F30006410A0F86810A0F86C10A0F86640A0F823
:102F40006A40A0F86E4041818181C1810182418245
:102F5000048544858485C48504864FF4004101803E
:102F600041808180C18001818182C182018341834E
:102F70008183C483048444848484C4844486848692
:102F8000C486048744878487A0F84440A0F84C4056
:102F9000A0F85440A0F85640A0F85840A0F85A4075
:102FA000A0F85C40A0F85E40A0F86040A0F8624045
:102FB000A0F8702010BD0000EC0000204048002068
:102FC00010B5062205494FF4807001F055FD7222BC
:102FD000BDE810400249802001F04EBDEC00002009
:102FE0004048002010B50AF0F1FD05A1002002F0D4
:102FF00079FA0221BDE81040012002F009B8000072
:10300000C8D5BEF920D7D4B6AFB5F7C1E3000000EC
:1030100010B50AF0DBFD05A1002002F063FA0421DF
:10302000BDE81040032001F0F3BF0000CAB1BEF9B3
:1030300020D7D4B6AFB5F7C1E300000010B50AF051
:10304000C5FD05A1002002F04DFA0021BDE81040A9
:10305000084601F0DDBF0000B7DBB3BE20D7D4B611
:10306000AFB5F7C1E30000002DE9F14F88B0182299
:1030700078496846FDF7E1FB77480899012584887F
:1030800076484FF4A06900EB410606F1140732368A
:10309000002040F2054A40F2035B40F2052806900A
:1030A00001E0079850B10AF091FD684602F04AFA33
:1030B0000920089907F0F2F90020079039880023C9
:1030C0004A46504607F084F8318800235A4640F2B9
:1030D000056007F07DF82946684602F023FA60A1F2
:1030E0004FF4007002F0FEF908980BF0D7FA014691
:1030F0005DA340F20262404606F0ACFF19200BF0DF
:1031000087FB0028EBD02946684602F00BFA0BF04B
:10311000CDF911284AD008DC012819D004282FD075
:1031200009287DD0102817D10CE021287ED0402816
:1031300002D0412810D156E06D1CEDB2032D0BD307
:10314000012509E0012D00D803256D1EEDB203E035
:10315000012D06D0022D08D0002DAFD109B0BDE859
:10316000F08F4A463946504603E05A46314640F20F
:10317000056001F0A5FA0028A0D0012006909DE787
:1031800006980028EAD0232138A002F007FF06287D
:1031900002D0072806D102E0FFF712FFDEE7FFF7B3
:1031A000A5FE0025002D7FF47BAFD7E740F6020097
:1031B000844201D2641CA4B2642111200EF0D0F923
:1031C00050B137E0641CA4B2204610F0C5F92B4979
:1031D00010F00AFA01F012F8032111200EF0C0F9E4
:1031E0000028EFD026E0C82C01D9641EA4B26421C7
:1031F00041200EF0B5F950B11CE0641EA4B2204687
:1032000010F0AAF91D4910F0EFF900F0F7FF0121C5
:1032100041200EF0A5F90028EFD00BE000E005E01A
:1032200040F29E70844205D2643402E0DC2C01D965
:10323000143CA4B2204610F08FF9104910F0D4F9D4
:1032400000F0DCFF0448848000F07EFA002D7FF45B
:1032500028AF83E7F4740108B448002040480020F8
:10326000BCC6D1B93A0000006B506100B1A3B4E60E
:10327000B1EAB6A8CAFDBEDD203F00000AD7233C54
:103280002DE9F14F724882B0012584887148029976
:103290004FF4007B00EB410606F10A0700202836B8
:1032A00040F2052940F2026840F2035ACDF80000CE
:1032B0000AF08CFC2946684802F034F9664802F0AE
:1032C00041F90920029907F0E9F8398800234246BC
:1032D00040F2054006F07CFF31880023524640F260
:1032E000056006F075FF29465B4802F01BF95BA1FB
:1032F000584602F0F7F802980BF0F0F9014659A38E
:103300004246484606F0A6FE19200BF081FA002836
:10331000EDD00BF0CBF8112845D008DC012819D0EE
:1033200004282CD0092878D010280CD10CE02128B2
:1033300079D0402802D0412805D151E06D1CEDB272
:10334000032D00D301257EE0012D00D803256D1E3D
:10335000EDB278E0012D02D0022D74D104E0424696
:10336000394640F2054003E05246314640F20560DE
:1033700001F0A6F900289BD00120009098E7009862
:10338000002862D0232138A002F008FE062802D0CF
:10339000072858D103E0BDE8FE4FFFF711BEFFF745
:1033A000A5FD00254FE040F60200844201D2641CD6
:1033B000A4B2642111200EF0D3F850B137E0641CA0
:1033C000A4B2204610F0C8F82B4910F00DF900F017
:1033D00015FF032111200EF0C3F80028EFD026E0DE
:1033E000C82C01D9641EA4B2642141200EF0B8F8A3
:1033F00050B11CE0641EA4B2204610F0ADF81E4986
:1034000010F0F2F800F0FAFE012141200EF0A8F8C9
:103410000028EFD00BE000E005E040F29E7084420F
:1034200005D2643402E0DC2C01D9143CA4B220465D
:1034300010F092F8104910F0D7F800F0DFFE0448C1
:10344000848000F081F9002D98D1BDE8FE8F000046
:10345000B448002040480020DC740108CEC2B6C841
:103460003A000000A1E60000B1A3B4E6B1EAB6A8B4
:10347000CAFDBEDD203F00000AD7233C2DE9F14FF5
:1034800088B0182278496846FDF7D7F97748089937
:103490000125848876484FF4A06900EB410700209D
:1034A00007F11E0640F2054A40F2035B40F2052890
:1034B000069001E0079850B10AF088FB684602F0D8
:1034C00041F80920089906F0E9FF002007903988A3
:1034D00000234A46504606F07BFE318800235A46B8
:1034E00040F2056006F074FE2946684602F01AF8BC
:1034F00060A14FF4007001F0F5FF08980BF068F937
:1035000001465EA340F20362404606F0A3FD192087
:103510000BF07EF90028EBD02946684602F002F84D
:103520000AF0C4FF11284AD008DC012819D0042869
:103530002FD009287DD0102817D10CE021287ED06B
:10354000402802D0412810D156E06D1CEDB2032D69
:103550000BD3012509E0012D00D803256D1EEDB226
:1035600003E0012D06D0022D08D0002DAFD109B007
:10357000BDE8F08F4A463946504603E05A46314688
:1035800040F2056001F09CF80028A0D001200690D0
:103590009DE706980028EAD0232139A002F0FEFC1E
:1035A000062802D0072806D102E0FFF709FDDEE772
:1035B000FFF79CFC0025002D7FF47BAFD7E740F69A
:1035C0000200844201D2641CA4B2642111200DF0D7
:1035D000C7FF50B137E0641CA4B220460FF0BCFF17
:1035E0002B4910F001F800F009FE032111200DF025
:1035F000B7FF0028EFD026E0C82C01D9641EA4B282
:10360000642141200DF0ACFF50B11CE0641EA4B257
:1036100020460FF0A1FF1E490FF0E6FF00F0EEFD7F
:10362000012141200DF09CFF0028EFD00BE000E0CD
:1036300005E040F29E70844205D2643402E0DC2C46
:1036400001D9143CA4B220460FF086FF10490FF0B8
:10365000CBFF00F0D3FD0548848000F075F8002D05
:103660007FF428AF83E700000C750108B448002000
:1036700040480020B2EED1B93A0000006B50610022
:10368000B1A3B4E6B1EAB6A8CAFDBEDD203F000092
:103690000AD7233C70B5442207494FF4C07001F0AB
:1036A000DBF9054C45F2B755A08EA84202D000F0D8
:1036B00005F8A58670BD0000B4480020AFF3008077
:1036C00070B51F4801214FF47A74017080F82410FE
:1036D0008482002280F82520C823C38280F8262017
:1036E000038380F827100523438380F82810838301
:1036F00080F829206510C583038443840223037264
:103700004FF49676868181734272F0264681C173AA
:103710008170C270017442F29576468285803725A9
:103720008571C3718485C4853223038680F8332074
:1037300080F8322080F83C100249016470BD00001E
:10374000B4480020D9AB0900442202494FF4C070AC
:1037500001F092B9B44800202DE9F05F0025394C02
:103760002E4640F2015740F207384FF4AF6A40F25C
:1037700007594FF4FA6B00BF0AF028FA324801F0FB
:10378000E1FEA18A31A33A46404606F021FD618D53
:1037900031B130A340F20252484606F019FD03E071
:1037A0002EA1484601F09EFE6D1CE9B2264801F0AC
:1037B000E5FE05001AD0012D2ED0022DE1D1618D3C
:1037C00024A340F20252484606F002FD1D4940F291
:1037D00002522A31484600F073FF0028D1D0618D93
:1037E000594501D9A4F82AB00126CAE7002E27D0EE
:1037F00023211DA002F0D2FB02280BD0062805D001
:1038000007281DD1BDE8F05FFFF744BFBDE8F05FBA
:10381000FFF79ABF0125AFE70A493A4614314046FF
:1038200000F04EFF0028ACD0A08A504502D9A4F881
:1038300014A0D9E74FF416718842D5D2A182D3E7FC
:10384000BDE8F09FB4480020DC780108204C2F6DC3
:1038500000000000206B506100000000205BCDA341
:10386000D3C35D2020000000B1A3B4E6D0DEB8C40D
:10387000BDE1B9FB203F00002DE9F05F0025344C8D
:103880002F4640F2063840F2035640F206594FF4F4
:10389000967A4FF0640B00BF0AF098F92D4801F0BA
:1038A00051FEE18A2CA33246404606F091FC218B62
:1038B00029A33246484606F08BFC6D1CE9B2254828
:1038C00001F05CFE050011D0012D25D0022DE8D1BC
:1038D0001F4932461831484600F0F2FE0028E0D079
:1038E000218B51452BD9A4F818A02CE0002F2CD007
:1038F00023211BA002F052FB02280BD0062805D082
:10390000072822D1BDE8F05FFFF7C4BEBDE8F05F35
:10391000FFF71ABF0125BFE70D4932461631404671
:1039200000F0CEFE0028BCD0E18A514502D9A4F8AF
:1039300016A008E0642906D2A4F816B003E06429B2
:1039400001D2A4F818B00127ABE7BDE8F09F000052
:10395000B4480020B4780108204C2F6D000000000E
:10396000B1A3B4E6D0DEB8C4BDE1B9FB203F00008E
:103970002DE9F05F0025424C2F4640F2015940F2FC
:10398000062840F2064B40F2035640F2066A00BF9A
:103990000AF01CF93B4801F0D5FDA18A3AA34A463A
:1039A000404606F015FCE18A37A33246584606F039
:1039B0000FFC218B34A33246504606F009FC6D1CE7
:1039C000E9B2304801F0DAFD050014D0012D28D00D
:1039D000022D39D0032DE0D1294932461831504605
:1039E00000F06EFE0028D8D0208B4FF496718842EC
:1039F0003ED9218340E0002F40D0232124A002F0B3
:103A0000CDFA02280BD0062805D0072836D1BDE80C
:103A1000F05FFFF73FBEBDE8F05FFFF795BE012501
:103A2000B6E717494A461431404600F049FE0028DF
:103A3000B3D0A08A4FF4AF61884203D84FF4167117
:103A4000884219D2A18217E00D49324616315846F4
:103A500000F036FE0028A0D0E08A4FF4967188422C
:103A600001D9E18208E0642806D26420E08203E004
:103A7000642801D26420208301278EE7BDE8F09FEF
:103A8000B4480020F4780108204C2F6D000000009D
:103A9000B1A3B4E6D0DEB8C4BDE1B9FB203F00005D
:103AA0002DE9F84FDFF8E8B0012500269BF8094022
:103AB000BBF80A00ADF8000040F2015740F2095887
:103AC000DFF8D09040F2093A0AF080F83148183017
:103AD00001F038FD04EB440109EB4101504601F0CF
:103AE00001FD2DA33A46BDF80010404606F070FBDC
:103AF00028482946183001F041FD050023D0012D4A
:103B00001DD0022DE6D13A466946404600F0D8FD68
:103B10000028DFD0BDF80000962804D29620ADF82A
:103B2000000009F05CFFBDF800104FF49670814270
:103B300003D9ADF8000009F052FF0126CAE7641C62
:103B400004F00304F9E7002E0BD0232113A002F0A8
:103B500025FA02281AD0062805D0072801D1FFF738
:103B600099FDBDE8F88F8BF80940BDF800005D466F
:103B7000ABF80A00FFF7E8FD68890FF0EDFC0B4990
:103B80000FF032FD697A0EF017FBEAE701259BE79B
:103B9000B448002014780108A1E60000B1A3B4E6FF
:103BA000C5E4D6C3CAFDBEDD203F0000CDCCCC3D70
:103BB0002DE9F84FDFF804B10125414F9BF80E4085
:103BC000BBF80C00ADF80000002640F2015940F2AD
:103BD000096A40F2093800BF09F0F8FF6CB13848B3
:103BE00010F1800001F0AEFC57F82410404601F0BF
:103BF00079FC012C04D09CB309E031489830F1E7FE
:103C000030A34A46BDF80010504606F0E1FA2C48B1
:103C10002946803001F0B2FC05002BD0012D24D0C4
:103C2000022DE1D1012CD7D14A466946504600F019
:103C300047FD0028D0D0BDF80000962804D2962079
:103C4000ADF8000009F0CBFEBDF800104FF4AF70E6
:103C5000814203D9ADF8000009F0C1FE0126BBE79F
:103C6000FFE7174829469830D4E70CB10024F5E760
:103C70000124F3E7002E0BD0232113A002F08EF9CC
:103C8000022819D0062805D0072801D1FFF702FD28
:103C9000BDE8F88FBDF80000ABF80C005D468BF86E
:103CA0000E40FFF751FDA8890FF056FC0A490FF0AE
:103CB0009BFC0EF095FAEBE701258DE7B448002058
:103CC000C4770108A1E60000B1A3B4E6C5E4D6C3F9
:103CD000CAFDBEDD203F0000CDCCCC3D2DE9F04734
:103CE0000125002609F072FF1D4F4FF480694FF047
:103CF00000081C4C09F06AFF1948183001F022FC3A
:103D0000607857F82010484601F0ECFB144829462B
:103D1000183001F033FC054601280DD0002DE9D103
:103D2000002E1BD0042110A002F038F906280FD075
:103D3000BDE8F047FFF7AEBC09F048FF6078401CD3
:103D4000C0B26070042801D384F801800126D1E755
:103D5000FFF7B6FCBDE8F047FFF7F6BCBDE8F0871B
:103D600024720108B4480020B1A3B4E6C5E4D6C368
:103D70003F0000002DE9F047012500261C4F1D4C97
:103D800040F20549B04600BF09F020FF184838301E
:103D900001F0D8FB207857F82010484601F0A2FB2C
:103DA00013482946383001F0E9FB054601280DD0BB
:103DB000002DE9D1002E19D004210FA002F0EEF859
:103DC00006280DD0BDE8F047FFF764BC2078012637
:103DD000401CC0B220700428D6D384F80080D3E7FA
:103DE000FFF76EFCBDE8F047FFF7AEBCBDE8F0871B
:103DF00014720108B4480020B1A3B4E6C5E4D6C3E8
:103E00003F0000002DE9F0470025284C2F4640F2E6
:103E1000025840F207364FF4FA6900BF09F0D6FEA7
:103E2000234801F08FFB618D29B122A34246304621
:103E300006F0CEF903E021A1304601F053FB6D1CE2
:103E4000E9B21B4801F09AFB050016D0012DEAD11A
:103E5000618D18A34246304606F0BAF9134942462E
:103E60002A31304600F02CFC0028DCD0618D494519
:103E700001D9A4F82A900127D5E7002F13D02321D8
:103E800011A002F08BF802280BD0062805D00728D5
:103E900009D1BDE8F047FFF7FDBBBDE8F047FFF7EC
:103EA00053BC0125BAE7BDE8F0870000B448002004
:103EB000CC780108206B506100000000205BCDA38E
:103EC000D3C35D2020000000B1A3B4E6D0DEB8C4A7
:103ED000BDE1B9FB203F00002DE9FF5F9548DFF809
:103EE00058820125D0E90012CDE90212D0E9021072
:103EF000CDE900100DF1080BA8F107064FF00309FA
:103F00000024FFF7C7FB8D4890F8241061B1012908
:103F100002D0022905D101E0002100E0012188F84A
:103F2000001000213170012490F8251069B1012999
:103F300002D0022906D103E0022108F8041001E0B2
:103F400008F8049001213155641C90F8261069B1DD
:103F5000012902D0022906D103E0022208F8042038
:103F600001E008F8049002213155641C90F82710F4
:103F700069B1012902D0022906D103E0022208F822
:103F8000042001E008F8049006F80490641C90F8FE
:103F9000281069B1012902D0022906D103E00221CB
:103FA00008F8041001E008F8049004213155641C5D
:103FB00090F8291061B1012902D0022905D101E050
:103FC000042200E0052208F8042005213155641C74
:103FD000007A90B1012808D0022802D0032809D124
:103FE00005E0062008F8040004E0072100E00821AD
:103FF00008F8041006203055641C022D2AD0032D29
:104000004DD009F0E3FD0027A7421ED2032C01D8B2
:104010004BA100E04EA1002001F064FAB7FBF9F1DA
:1040200009FB117A4349F25D10313BF81A0051F84F
:10403000221001F057FA3F4918F807202C313DF8BB
:104040001A0051F8221001F04DFA7F1CFFB2032F25
:10405000DAD348E009F0BAFD032741A1002001F0BE
:1040600041FAA74216D2B7FBF9F109FB117A31499F
:10407000F25D10313BF81A0051F8221001F032FACB
:104080002C4918F807202C313DF81A0051F822105D
:1040900001F028FA7F1CFFB2062FDED323E009F0DF
:1040A00095FD062732A1002001F01CFAA74216D286
:1040B000B7FBF9F109FB117A1E49F25D10313BF8AB
:1040C0001A0051F8221001F00DFA1A4918F80720C9
:1040D0002C313DF81A0051F8221001F003FA7F1C30
:1040E000FFB2092FDED3A41CB4FBF9F0C4B20AF06E
:1040F000DDF9082818D007DC012803D0022810D0E9
:1041000004280ED1BDE8FF9F102804D0202802D03B
:10411000402806D108E06D1E15F0FF057FF4F0AED3
:104120002546002DFAD1EDE76D1CEDB2A542F8D978
:104130000125E5E6547A0108F9000020B448002082
:10414000B1C3B0B2D7B0C7E9BFF62020000000006D
:10415000B1C3B0B2D7B0C7E9BFF62031000000004C
:10416000B1C3B0B2D7B0C7E9BFF62032000000003B
:10417000B1C3B0B2D7B0C7E9BFF62033000000002A
:104180002DE9FF5F00249B4691468A462646254638
:104190003AF814000FF0E0F917490FF025FAB0468D
:1041A00059F8246001462F4630460FF0DBF80546EB
:1041B000014600980FF0E4FA03D2641CE4B25C45B7
:1041C000E6D3394628460FF09FFB04464146304669
:1041D0000FF09AFB21460FF0C5F8044639460098C7
:1041E0000FF092FB21460FF0FFF904B04146BDE805
:1041F000F05F0FF043B800006F12833A02490A786B
:10420000012A00D148607047280000200149487009
:10421000FDF702BD280000200A4980B1012806D020
:10422000022807D0032808D04FF0FF3007E043F6FC
:10423000982004E047F2305001E04EF660204860DC
:10424000704700000800002010B506F022FC074966
:1042500028B101200870BDE8104006F08DBB002099
:104260000870BDE8104001F0FDBE000028000020ED
:10427000C0B2202800D27F20024901EB0010A0F537
:1042800000707047F03A010870B5C0B2104C60F38E
:104290001F2101234FF49F729818400804EB40053A
:1042A00014F810606D7805EB0625ADB2A94203D174
:1042B000084901EB401070BD03D900F1010083B241
:1042C00002E0A0F1010082B29342E5D9014870BD3D
:1042D000F04001086E43010870B50C4606461546CD
:1042E0000021A02009F024FC60B1300A09F0EEFBA7
:1042F00040B1F0B209F0EAFB20B10121A02009F0A1
:1043000017FC48B909F04EFC002070BD002009F0F0
:10431000A7FBC04304F8010B6D1E15F0FF05F5D196
:10432000012009F09DFBC043207009F03BFC0120F7
:1043300070BD000070B50C46064615460021A02051
:1043400009F0F6FB08B3300A09F0C0FBE8B1F0B29F
:1043500009F0BCFBC8B100BF14F8010BC043C0B2E8
:1043600009F0B4FB88B16D1E15F0FF05F4D109F01A
:1043700019FCA0254FF4C8740021284609F0D8FB89
:1043800030B109F00FFC012070BD09F00BFC03E017
:10439000641E2404240CEFD1002070BD10B500F081
:1043A000E9FF10BD0349012008700349400308607C
:1043B00070470000380000201404014010B500F0E0
:1043C000D9FF10BD10B500F0D5FF10BD10B500F03D
:1043D000D1FF10BD10B500F0CDFF10BD10B500F03D
:1043E000C9FF10BD2DE9F34FDFF86C9191B00126A4
:1043F000B9F8048001A91298FCF76CFB06984FF4F9
:10440000FA6B00F26C7084B2059840F6330A401CD7
:10441000C5B20498C7B22B46224650A10CA80097FB
:10442000FBF7B8FF0CA9119801F05CF8012E04D03D
:10443000022E05D0032E08D11BE00421119802E0C2
:104440001198401D17E001F043F80AF02FF81028EA
:104450002AD013DC01285BD0042868D008284BD070
:104460000928D8D140F29E714046884568D2643010
:1044700064E01198083080B20221E4E7202841D09E
:10448000212856D04028C6D1012E29D0022E2DD069
:10449000032EC0D17F1E17F0FF07BCD1294620464E
:1044A00009F09EFB0746B6E7012E0DD0022E11D073
:1044B000032EB0D12946204609F092FB7F1CFFB2A3
:1044C000B842A8D20127A6E7641CA4B25445A2D9D9
:1044D0005C46A0E76D1CEDB20C2D9CD901259AE736
:1044E000641EA4B25C4596D2544694E76D1E15F046
:1044F000FF0590D10C258EE7761CF6B2032E8AD9E3
:10450000012688E7761E16F0FF0684D1032682E78F
:10451000A4F26C746D1E0497CDE9055401A8FCF754
:1045200022FA12990860012013B0BDE8F08F002034
:10453000FAE74046B8F1DC0F02D9143880B2804661
:104540000FF00AF809490FF04FF8FFF757FEA9F8E6
:104550000480FFF7F9F85EE7B44800202530347591
:104560002D253032752D2530327500000AD7233CB9
:104570002DE9F0474C4F894692B082460124BD8810
:1045800001A94846FCF7A6FA4FF018083C26019806
:10459000DDE90232009045A10CA8FBF7FBFE0CA957
:1045A000504600F09FFF012C04D0022C05D0032CB4
:1045B00008D11AE00221504602E00AF1030016E099
:1045C00000F086FF09F072FF102827D012DC0128C6
:1045D0004FD0042856D008283FD00928D7D140F220
:1045E0009E70854254D2643551E00AF1060080B2D3
:1045F0000221E5E7202836D0212845D04028C6D121
:10460000012C1AD0022C20D0032CC0D101983B30B1
:10461000B0FBF6F106FB11000190B8E7012C06D0C3
:10462000022C07D0032CB2D10198401CF0E703986C
:10463000401C04E00298401C09E003981730B0FBCE
:10464000F8F208FB12000390A1E702983B30B0FBA0
:10465000F6F106FB1100029099E7641CE4B2032C0A
:1046600095D9012493E7641E14F0FF048FD103242D
:104670008DE701A8FCF777F9C9F80000012012B016
:10468000BDE8F0870020FAE7DC2D01D9143DADB27A
:1046900028460EF061FF09490EF0A6FFFFF7AEFDB8
:1046A000BD80FFF751F872E7B4480020253032751D
:1046B0003A253032753A2530327500000AD7233C4E
:1046C00038B50C4609880091694600F007F80028C3
:1046D00002D000982080012038BD00002DE9F74F5E
:1046E00090B000251198904612F0FF0701687148BC
:1046F00084884FEA1220814601D0A9F10100C6B298
:104700006D48A6EB070A50F82600B1FBF0F200FB5B
:10471000121B58460EF020FF6749283151F8271028
:104720000EF020FE0EF07EFDCDE9000108F0FF0343
:104730004A4662A10AA8FBF72DFE0AA9109800F0CC
:10474000D1FE1098AA45284400DC401C80B201210B
:1047500000F0BEFE681C0090864206D35648711BCE
:1047600000EB810050F8040C00E00120019009F0FA
:104770009DFE112857D01CDC082843D007DC0128F7
:104780004CD00428C5D1002013B0BDE8F08F092813
:1047900079D01028BDD101990A20BBFBF1F1B1FB02
:1047A000F0F200FB1210092815D001990BEB010063
:1047B00020E020282AD021286BD040280ED0412884
:1047C000A7D1C82C01D9641EA4B2642141200CF0E9
:1047D000C7FEA0B361E0019840420EE001990A20B3
:1047E000BBFBF1F1B1FBF0F200FB121020B101991B
:1047F000ABEB010083468CE7019800EBC00101EBB5
:104800000B00F7E70098B0FBF6F103E0A819401E93
:1048100090FBF6F106FB1100C5B27AE71199012071
:10482000C1F800B0B0E740F60200844201D2641C37
:10483000A4B2642111200CF093FE58B12DE01AE0CF
:10484000641CA4B220460EF087FE1E490EF0CCFE7A
:10485000FFF7D4FC032111200CF082FE0028EFD0DA
:104860001BE0641EA4B220460EF076FE15490EF041
:10487000BBFEFFF7C3FC012141200CF071FE0028B4
:10488000EFD00AE0FFE740F29E70844205D2643424
:1048900002E0DC2C01D9143CA4B220460EF05CFEF0
:1048A00008490EF0A1FEFFF7A9FC02488480FEF73C
:1048B0004BFF2EE7B4480020BC70010825302A2E9B
:1048C0002A6600000AD7233C2DE9F35F0A88884650
:1048D0004FF03C0BB2FBFBF14FF06409B1FBF9F474
:1048E0005B4809FB14140BFB11250027B0F804A04A
:1048F000012600BFC4EB041005EB8001009805F011
:10490000B3FE012E06D0022E07D0032E18D0042E9F
:1049100008D118E00121009802E00098401C14E042
:1049200000F0D6FD09F0C2FD102818D010DC0128D7
:1049300065D004286BD0082855D0092852D168E0EA
:104940000098C01C01E00098001D80B20121E7E73B
:1049500020284ED0212863D0402874D110E0012EA9
:1049600006D0022E06D0032E06D0042E6BD105E011
:104970000A340FE0611C14E00A3520E0691C25E0D0
:10498000012E06D0022E0AD0032E17D0042E5AD1A3
:104990001AE05A34B4FBF9F109FB1144AAE704F117
:1049A00009010A20B1FBF0F200FB1211B4FBF0F098
:1049B00000EB800001EB4000C4B29BE73235B5FB51
:1049C000FBF10BFB115595E705F109010A20B1FB3D
:1049D000F0F200FB1211B5FBF0F000EB800001EBF0
:1049E0004000C5B22FE0761CF6B2042E2BD901266A
:1049F00029E0761E16F0FF0625D1042623E0C4EB3D
:104A0000041005EB8001A8F8001001271DE0002725
:104A10001BE040F29E7150468A4508D2643004E0A3
:104A20005046BAF1DC0F02D9143880B282460EF03B
:104A300093FD08490EF0D8FDFFF7E0FB0449A1F80B
:104A400004A0FEF781FE002EA8D13846BDE8FC9FE9
:104A5000B44800200AD7233C70B514460D460646DC
:104A600008F0F0FFE2B229463046FFF735FC044675
:104A700008F0F0FF204670BD70B514460D4606469E
:104A800008F0E0FFE2B229463046FFF753FC044647
:104A900008F0E0FF204670BD10B51BA0FDF752F9ED
:104AA00010221B491BA0FDF76FF93022102119A01D
:104AB000FDF7BEF81BA0FDF745F9102214491BA015
:104AC000FDF762F94022102118A0FDF7B1F81BA0F4
:104AD000FDF738F910220E491AA0FDF755F970229A
:104AE000102118A0FDF7A4F81AA0FDF72BF9102249
:104AF00007491AA0FDF748F97022BDE810401021BF
:104B000016A0FDF795B800005C53445F4149520080
:104B1000AE0000205C53445F4149525C4149522E33
:104B2000545854005C53445F545350005C53445FEA
:104B30005453505C5453502E545854005C53445FAB
:104B4000523234005C53445F5232345C5232342E61
:104B5000545854005C53445F534849005C53445FCD
:104B60005348495C5348492E5458540010B5ADF58C
:104B7000007D4FF40074224648496846FBF75DFE0D
:104B800047A1002000F0AEFC0F23484A002148A0B6
:104B9000FDF79CF800286DD00F2244496846FBF7CA
:104BA000B0FD20B12246694641A0FDF7EDF845A1D0
:104BB000002000F097FC0F233C4A002144A0FDF7A1
:104BC00085F800285AD00F2238496846FBF799FD2E
:104BD00020B1224669463EA0FDF7D6F841A100204B
:104BE00000F080FC0F23314A002141A0FDF76EF850
:104BF000002847D00F222D496846FBF782FD20B1DF
:104C0000224669463AA0FDF7BFF83EA1002000F019
:104C100069FC0F23254A00213DA0FDF757F8002825
:104C200034D00F2221496846FBF76BFD20B12246A4
:104C3000694637A0FDF7A8F83AA1002000F052FC21
:104C40000F231A4A00213BA0FDF740F8002821D08D
:104C50000F2216496846FBF754FD20B122466946EB
:104C600034A0FDF791F838A1002000F03BFC0DF5D1
:104C7000007D10BD38A0FDF765F893E739A0FDF77A
:104C800061F8A6E73AA0FDF75DF8B9E73BA0FDF7AC
:104C900059F8CCE73CA0FDF755F8DFE7BC6E0108FA
:104CA0004C6F6164696E672E000000004046002072
:104CB0005C5553425F4149525C4149522E5458540D
:104CC000000000004C6F6164696E672E2E000000CA
:104CD0005C5553425F5453505C5453502E545854B7
:104CE000000000004C6F6164696E672E2E2E00007C
:104CF0005C5553425F5232345C5232342E54585415
:104D0000000000004C6F6164696E672E2E2E2E002D
:104D10005C5553425F5348495C5348492E5458549C
:104D2000000000004C6F6164696E672E2E2E2E2EDF
:104D3000000000005C5553425F504F575C504F5786
:104D400045522E54585400004C6F6164696E672EB2
:104D50002E2E2E2E2E0000005C5553425F414952EC
:104D6000000000005C5553425F54535000000000A7
:104D70005C5553425F523234000000005C55534290
:104D80005F534849000000005C5553425F504F5745
:104D90000000000010B50C4641011023224603A07C
:104DA00004F0C4F9002800D1206010BD5C53445FBA
:104DB0004149525C4149522E5458540010B50C469A
:104DC00081014023224603A004F0B0F9002800D15D
:104DD000206010BD5C53445F5232345C5232342E3A
:104DE0005458540010B50C4681014023224603A0BC
:104DF00004F09CF9002800D1206010BD5C53445F92
:104E00005348495C5348492E5458540010B50C4639
:104E100000EB8000C1002423224603A004F086F9A1
:104E2000002800D1206010BD5C53445F5453505C97
:104E30005453502E5458540070B50D460446642106
:104E40000748FBF72CFD102229460548FBF7B0FC6C
:104E50006101BDE870402023014A02A004F068B956
:104E6000D84300205C53445F4149525C4149522E73
:104E70005458540070B50D46044664210748FBF7AA
:104E80000EFD402229460548FBF792FCA101BDE832
:104E900070404023014A02A004F04AB9D8430020E0
:104EA0005C53445F5232345C5232342E54585400B6
:104EB00070B50D46044664210748FBF7F0FC40221C
:104EC00029460548FBF774FCA101BDE8704040236A
:104ED000014A02A004F02CB9D84300205C53445F7F
:104EE0005348495C5348492E5458540070B50D46F8
:104EF000044664210848FBF7D2FC242229460648D0
:104F0000FBF756FC04EB8400BDE87040C100282389
:104F1000014A02A004F00CB9D84300205C53445F5E
:104F20005453505C5453502E5458540070B5144C84
:104F3000144E2046217A457A4089012915D002294C
:104F400009D003291BD10EF007FB31460EF04CFBB4
:104F500029460DF031F9A0890EF0FEFA31460EF027
:104F600043FBBDE870400DF03BB90EF0F5FA314659
:104F70000EF03AFB2946BDE870400DF01DB970BD3A
:104F8000B4480020CDCCCC3D1148816941F00101ED
:104F900081611049202048610F48016821F40051C7
:104FA0000160001F016821F45C4101600A49091D8C
:104FB0000A680A60091D0A6842F400520A60064A3B
:104FC000411410321160016841F4005101607047D2
:104FD00000100240000001400404014008B5002018
:104FE000009008F0F3FD07A1002000F07BFA4FF4D9
:104FF000C062694640F20530FFF770FB002800D020
:10500000009808BDCAE4C8EBC3DCC2EB3A0000005C
:105010002DE9F04F0746B048884699B0848805A925
:105020001691AE480AA9149100260FA9354600EB47
:10503000480A00EB47091591B9F8261068462DF883
:10504000161000EB4600BAF826108182B9F81A1043
:105050000185761CBAF81A10F6B281870A2E02D0A2
:1050600025B10A2103E000260125FAE7314668460A
:1050700008F0A6FCDFF868B22BF817000DB10A2182
:1050800000E03146169808F09BFC2BF818000DB193
:105090000A2100E03146149808F092FC904901EB97
:1050A000470BABF814000DB10A2100E0314615980A
:1050B00008F086FC8A49474501EB48011791888230
:1050C00032D10DB10A2100E03146684608F078FC83
:1050D0000146834820F817100DB10A2100E031463F
:1050E000149808F06DFCABF814007EA140F201208A
:1050F00000F0F8F9384609F06BFB014640F2026B0C
:1051000000235A4640F2014004F0A4FF77A140F288
:10511000092000F0E7F9384609F0C0FA01460023FB
:105120005A4640F2094063E00DB10A2100E03146E1
:10513000684608F045FC6A4921F817000DB10A21BC
:1051400000E03146169808F03BFC0146644820F820
:1051500018100DB10A2100E03146149808F030FC17
:10516000ABF814000DB10A2100E03146159808F0A3
:1051700027FC179988825BA140F2012000F0B2F968
:105180005CA14FF4806000F0ADF95BA14FF4C0600A
:1051900000F0A8F9384609F01BFB014640F2036B0A
:1051A00000235A4640F2024004F054FF404609F002
:1051B0000FFB5A46014640F2026B0023584604F0AA
:1051C00049FF4AA140F2092000F08CF9384609F065
:1051D00065FA014600235A4640F2094004F03AFFBE
:1051E000404609F05BFA014600235A4640F2096046
:1051F00004F030FF282009F00BFB00283FF41CAF1F
:1052000009F054F9112820D00CDC012818D004280A
:1052100016D009287FF410AF40F29E7084424DD220
:1052200064344AE0212845D04128F3D1C82C01D963
:10523000641EA4B2642141200CF092F980B33DE0D9
:10524000FDF7BEFE19B0BDE8F08F40F602008442C3
:1052500001D2641CA4B2642111200CF081F958B170
:105260002CE0641CA4B220460EF076F959460EF0EC
:10527000BBF9FEF7C3FF01E0DFF880B00321112086
:105280000CF06EF90028ECD018E0641EA4B22046A1
:105290000EF062F959460EF0A7F9FEF7AFFF02E0F3
:1052A000FFE7DFF858B0012141200CF059F9002840
:1052B000EBD003E0DC2C01D9143CA4B220460EF064
:1052C0004BF90E490EF090F9FEF798FF02488480E2
:1052D000FEF73AFAB0E60000B44800209A440020F5
:1052E00040480020C1F7C1BF3A000000BCC6D1B998
:1052F0003A000000433A0000443A00000AD7233C39
:105300000449FF2008600348143801686FF309015D
:1053100001607047140401401348816941F00101A4
:1053200081611248012181600021C160104801683B
:105330006FF309010160001F016821F440710160F1
:105340000B49091D0A6842F0FF020A60091D0A683C
:1053500042F0FF020A60064AFF2110321160016824
:1053600041F0FD0101607047001002400000014063
:105370000404014010B5FFF7C3FF0348C068BDE84F
:1053800010400CF05DB800000800002010B50021AE
:1053900008480CF03DF8084C0021E0600548001D6D
:1053A0000CF036F8A06003480021BDE8104008303A
:1053B0000CF070B8D83A0108080000200F48816945
:1053C00041F004018161816941F0080181610C496A
:1053D000FC2008600B490320086009481038016868
:1053E000094AC9B21143016006481038016821F02A
:1053F0000F0141F0080101607047000000100240F9
:1054000010080140100C0140008888880648006898
:105410000649C0F38500096801F0010140EA8111E5
:105420007F2088437047000008080140080C0140B5
:1054300070B51D48008907F06BF980F000411B48EA
:1054400000680EF061FA1A4C06461A49E0600EF048
:10545000CBF861680DF012FF0546606016493046D2
:105460000EF0C2F829460DF009FF14490EF0BCF801
:1054700005461349A0680EF0B7F829460DF0FEFE68
:105480001049A060884202DC0F49884200DAA1601E
:105490000E49A0680EF0A8F80EF026F8BDE870409E
:1054A00080B200F08DBF00008C4400202C00002052
:1054B000900000200AD7233CA69B443B6666663FCB
:1054C000CDCCCC3DCDCC4C3E0AD7A33C0000D84639
:1054D000034A1278012A01D000F0ACBE05F098BB57
:1054E00028000020034A1278012A01D000F0E2BE11
:1054F00005F0D0BB2800002008498A6942F010025C
:105500008A6108B1891501E04FF08071044801619A
:10551000416821F00F01C91C416070470010024032
:105520000010014070B50C46054600EBC400406811
:10553000FBF7C8F8C1B235F83400BDE87040FFF79A
:10554000C7BF000070B501880546080ACEB201D079
:105550007043C6B2696811B10020FFF7C3FF012490
:1055600009E000BF05EBC400416835F83400FFF7DF
:10557000B9FF641CE4B2B442F4D970BD002200F05B
:1055800009B81346002200F0D5B81346002200F0F7
:10559000B9B900002DE9F05F0C46DFF890B1018841
:1055A0000646BBF804509046080ACFB230D0784384
:1055B00000F0FF0A0CB1544500D9012406EBC409E0
:1055C000D9F80400FBF77EF8C1B236F83400FFF7D3
:1055D0007FFF00BF5FEA080000D08047322009F05B
:1055E00017F90028F6D036F83400D9F80410FFF780
:1055F00079FF08F05BFF10283DD00BDC0A28DDD2D4
:10560000DFE800F00540450543050505277DD5E7A2
:10561000BA46CFE7212878D00DDC112839D02028D0
:10562000CCD1641EE4B2B4FBF7F007FB10400028B5
:10563000C4D1E0191DE0402815D04128BED1C82DA5
:1056400001D96D1EADB2642141200BF089FFB8B3C2
:105650005FE0B4FBF7F007FB104008B9E01BC4B2F1
:10566000641CE4B2AAE7E019C4B25445A6D9A4EB7D
:105670000A00C4B2A2E7BC4202D804EB0A00C4B2DA
:10568000E01BF6E72046BDE8F09F0020FBE7FF2087
:10569000F9E740F60200854201D26D1CADB26421EB
:1056A00011200BF05DFF60B133E06D1CADB22846F8
:1056B0000DF052FF49460DF097FFFEF79FFD02E007
:1056C00013E0DFF86C90032111200BF049FF002854
:1056D000EBD01EE06D1EADB228460DF03DFF4946F1
:1056E0000DF082FFFEF78AFD01E0DFF84490012112
:1056F00041200BF035FF0028ECD00AE005E040F235
:105700009E70854205D2643502E0DC2D01D9143D3E
:10571000ADB228460DF020FF05490DF065FFFEF7FC
:105720006DFDABF80450FEF70FF847E7B4480020D2
:105730000AD7233C2DE9FF5F06460C466F483188A7
:10574000904685884FF0000B080ACFB230D07843DE
:1057500000F0FF0A0CB1544500D9012406EBC4093E
:10576000D9F80400FAF7AEFFC1B236F83400FFF7FB
:10577000AFFE00BF5FEA080000D08047322009F08A
:1057800047F80028F6D036F83400D9F80410FFF7AF
:10579000A9FE08F08BFE102847D00BDC0A28DDD2CA
:1057A000DFE800F005575D055B0505052294D5E7A8
:1057B000BA46CFE7212874D008DC112851D0202820
:1057C000CCD1039850EA0B003CD032E0402823D0E3
:1057D0004128C3D1C82D01D96D1EADB2642141202D
:1057E0000BF0BEFEA0B37BE0039850EA0B0017D08D
:1057F00003E000BFA4EB0A000CE0B4FBF7F007FBEA
:10580000104008B9E01BC4B2641CE4B2A6E7E01B78
:1058100000E0E019C4B2A1E7039830EA0B00ECD134
:10582000E019C4B2544599D9E4E7039830EA0B0073
:1058300008D0641EE4B2B4FBF7F007FB1040002868
:105840008CD1E6E7BC42E2D804EB0A00C4B2DEE742
:1058500033E0204604B0BDE8F09F0020FAE7FF20C7
:10586000F8E740F60200854201D26D1CADB264211A
:1058700011200BF075FE58B132E06D1CADB2284618
:105880000DF06AFE49460DF0AFFEFEF7B7FC01E0F1
:10589000DFF86C90032111200BF062FE0028ECD0A1
:1058A0001EE019E06D1EADB228460DF055FE4946CA
:1058B0000DF09AFEFEF7A2FC01E0DFF84490012112
:1058C00041200BF04DFE0028ECD009E040F29E7024
:1058D000854205D2643502E0DC2D01D9143DADB21C
:1058E00028460DF039FE06490DF07EFEFEF786FCD7
:1058F00002488580FDF728FF30E70000B44800200B
:105900000AD7233C2DE9FF5F064673480C463188D1
:105910008588080AC9B2984691468A4630D000FB6D
:105920000AF0C0B200900CB1844200D9012408F002
:10593000ABFE834606EBC40003904068FAF7C2FE54
:10594000C1B236F83400FFF7C3FD00BF5FEA0900BB
:1059500000D0804708F098FEA0EB0B00C7B2A8EB80
:1059600007025EA101A8FAF715FD01A940F2044063
:10597000FFF7B8FD474507D3012004B0BDE8F09F0D
:105980000846CDF800A0CEE7322008F041FF0028FD
:10599000DCD00398416836F83400FFF7A3FD08F027
:1059A00085FD10283ED009DC0A28C3D2DFE800F0CC
:1059B0000542460544050505267CBBE7212879D02C
:1059C0000EDC11283CD02028B4D1641EE4B2B4FB14
:1059D000FAF10AFB11400028ACD104EB0A001FE0E9
:1059E000402816D04128A5D1C82D01D96D1EADB2D1
:1059F000642141200BF0B4FDC8B35FE0B4FBFAF1C1
:105A00000AFB114010B9A4EB0A00C4B2641CE4B252
:105A100090E704EB0A00C4B2009884428AD9201AA5
:105A2000C4B287E7544502D800982044C4B2A4EB1E
:105A30000A00F5E72046A0E700209EE7FF209CE74C
:105A400040F60200854201D26D1CADB264211120E6
:105A50000BF086FD60B131E06D1CADB228460DF053
:105A60007BFD39460DF0C0FDFEF7C8FB01E012E0FA
:105A70001C4F032111200BF073FD0028ECD01DE01A
:105A80006D1EADB228460DF067FD39460DF0ACFD38
:105A9000FEF7B4FB00E0134F012141200BF060FD45
:105AA0000028EDD00AE005E040F29E70854205D264
:105AB000643502E0DC2D01D9143DADB228460DF06D
:105AC0004BFD08490DF090FDFEF798FB02488580DC
:105AD000FDF73AFE2EE70000B44800202825327575
