:020000040800F2
:10000000D04F002041030008490300084B030008BB
:100010004D0300084F0300085103000800000000D2
:10002000000000000000000000000000790200084D
:100030005503000800000000F10200082D0300082D
:100040005B0300085B0300085B0300087D93000866
:100050005B0300085B0300081D4400083D440008E2
:10006000454400084D440008554400085B0300085F
:100070005B0300085B0300085B0300085B030008E8
:100080005B0300085B0300085B0300085B030008D8
:100090005B0300085B0300085B0300085D44000885
:1000A0005B0300085B0300085B0300085B030008B8
:1000B0005B0300085B030008D1AC00085B03000889
:1000C0005B0300085B0300085B0300085B03000898
:1000D0005B0300085B0300085B03000871B20008C3
:1000E000254400085B0300085B03000800F002F8E9
:1000F00000F07CF80AA090E8000C82448344AAF146
:100100000107DA4501D100F071F8AFF2090EBAE843
:100110000F0013F0010F18BFFB1A43F0010318473B
:100120001C8401003C8401000A444FF0000C10F8CC
:10013000013B13F0070408BF10F8014B1D1108BF65
:1001400010F8015B641E05D010F8016B641E01F805
:10015000016BF9D113F0080F1EBF10F8014BAD1C55
:100160000C1B09D16D1E58BF01F801CBFAD505E073
:1001700014F8016B01F8016B6D1EF9D59142D6D3CD
:10018000704700000023002400250026103A28BFF5
:1001900078C1FBD8520728BF30C148BF0B607047F9
:1001A000662913F02886642900F07A81752900F009
:1001B0007781782900F0B081632900F09E87732948
:1001C00000F0A387002070471FB500F0A2FF0400D5
:1001D0000020002112F076FFE0601FBD10B510BDB9
:1001E00003B4FFF7FBFF03BC01F092F800F0CCF87A
:1001F0001146FFF7E9FF11F089FA0448002111F0D8
:100200004BFB11F095FA00F053FA0000400000207B
:1002100080F309887047EFF309807047684680F3E0
:10022000098804480078C00714BF0220032080F327
:1002300014887047646F0108DFF818C0EFF3058376
:100240001B0618BF6047EFF31483DB0708BF604746
:1002500000DF704799190108DFF818C0EFF3058334
:100260001B0618BF6047EFF31483DB0708BF604726
:1002700000DF70477D1B0108EFF30980816911F8E9
:10028000021CF1B990E80F10E047EFF3098C8CE8FD
:100290000700144B93E8060091420FD039B12CE9C6
:1002A000F00FC1F824C00CB411F09CFF0CBC1A6014
:1002B000D2F824C0BCE8F00F8CF309886FF0020E6E
:1002C000704710B5084A1268914209D8074C54F893
:1002D000214090E80F10A047EFF3098C8CE80F0045
:1002E00010BD00007C010020141B0008141B000836
:1002F00011F014FE0C4B93E80600914210D0EFF37E
:10030000098C2CE9F00FC1F824C00CB411F06AFF7D
:100310000CBC1A60D2F824C0BCE8F00F8CF309883A
:100320006FF0020E704700007C01002012F020F8F0
:10033000E0E7000011F002FB12F01AF8DAE7000023
:100340000948804709480047FEE77047FEE7FEE797
:10035000FEE7FEE7FEE7FEE7FEE7FEE704480549A5
:10036000054A064B70470000E9AB0008ED000008A5
:10037000D0490020D04F0020D04B0020D04B00208F
:1003800000487047704900207546FFF7F9FFAE46F8
:1003900005006946534620F00700854618B020B591
:1003A000FFF7DCFFBDE820404FF000064FF00007EC
:1003B0004FF000084FF0000B21F00701AC46ACE80D
:1003C000C009ACE8C009ACE8C009ACE8C0098D467A
:1003D000704700000FB41CB5074B06AA7B44694662
:1003E0000090059800F067FE0020694600F076FE58
:1003F0001CBC5DF814FB0000FD0C000070B5044649
:1004000085690068C10601D5302600E02026C007B6
:1004100008D070BDD4E9012130469047206A00F130
:10042000010020626D1EF5D570BD70B5044685696A
:100430000078C00708D170BDD4E901212020904781
:10044000206A00F1010020626D1EF5D570BD70B507
:100450000C460546012A05D02878800600D5EA69B1
:10046000002302E0012305E05B1C934202D2E05C22
:100470000028F9D1A869E618C01AA861286A1844AA
:1004800028622846FFF7BAFF04E0D5E9012114F8F5
:10049000010B9047B442F8D32846FFF7C6FF70BD62
:1004A0002DE9F0410646002410687529314616A54D
:1004B00011D0AFF30080002803DAC0F1000013A5CB
:1004C00007E031688A0701D511A502E0490704D584
:1004D00010A5012401E0AFF3008000210A2306F1FA
:1004E000240707E0B0FBF3F203FB1200303078542E
:1004F0001046491C0028F5D123462A463046BDE85F
:10050000F04100F067BB0000000000002D0000007B
:100510002B0000002000000070B504460D46214667
:100520001068AFF300802188090502D5104A7A448B
:1005300002E00F4A7A440E32002104F1240307E05E
:1005400000F00F064FEA1010965D5E5401F10101B4
:100550000028F5D103462078000704D5702D02D07D
:1005600009B1113202232046BDE8704000F032BBD1
:10057000A67901002DE9F05F894604464FF0000A94
:10058000DFF828B1FB44C0F820A02046E168884786
:1005900000287CD0252806D0D4E901219047206A84
:1005A000401C2062F1E700255F462046E16888474D
:1005B0002028064608DB312E06D207EB060010F88D
:1005C000200C08B10543F0E7A80701D525F0040584
:1005D000C4F81CA00027C4F818A02A2E09D0304661
:1005E0000CF059FB38B304EB8708303EC8F81860AC
:1005F00019E059F8041B204604EB87029161E16879
:100600008847012F064618D1E069002820DA25F036
:1006100020051DE0D8F8180000EB800006EB400034
:100620003038C8F818002046E168884706460CF0C4
:1006300032FB0028EED1012F0AD02E2E08D1204601
:10064000E16888477F1C0646022F45F02005C4DB81
:10065000A069002803DA404245F00105A061E807DF
:1006600001D025F0100596B1A6F14100192802D855
:10067000203645F400654A463146204625604D4601
:10068000FFF78EFD60B1012807D0ED1D00E009E005
:1006900025F0070000F1080977E705F1040974E780
:1006A000304679E7206ABDE8F09F000078790100C4
:1006B0000446AFF300802046FFF792FD40EA0103B5
:1006C000024630B59B0710D14FF0013400E008C25C
:1006D00008C91D1B9D4315EAC41FF8D013F0FF0184
:1006E00002F8011B0DD01B0AF8E711F8013B002BA3
:1006F00002F8013B05D011F8013B002B02F8013B49
:10070000F3D130BD10B5431C02E010F8011B71B1EC
:100710008107FAD14FF0013202C88C1A8C4314EAD7
:10072000C211F9D0C01A0A0603D0C01E10BDC01AEB
:1007300010BD0A0401D0801E10BD0902FCD0401E6D
:1007400010BD40EA010370B59B072ED14FF0013672
:10075000042A2AD308C810C9121F9D1B9D4315EAFD
:10076000C61517D0D8B2E1B2401A50EA056110D1CF
:1007700098B2A1B2401A50EA05410AD123F07F4055
:1007800024F07F41401A50EA052102D1180EA0EB57
:10079000146070BDA342DBD018BA21BA884201D9D7
:1007A000012070BD4FF0FF3070BD0AB9002070BD50
:1007B00010F8013B11F8014B63B1A3420AD1521E5C
:1007C00008D010F8013B11F8014B1BB1A34201D135
:1007D000521EEDD1181B70BD421E12F8013F002BB6
:1007E000FBD111F8013B002B02F8013BF9D1704716
:1007F000032A40F2308010F0030C00F0158011F84D
:10080000013BBCF1020F624498BF11F801CB00F824
:10081000013B38BF11F8013BA2F1040298BF00F878
:1008200001CB38BF00F8013B11F0030300F0258035
:10083000083AC0F0088051F8043B083A51F804CB5C
:10084000A0E80810F5E7121D5CBF51F8043B40F822
:10085000043BAFF30080D20724BF11F8013B11F82D
:1008600001CB48BF11F8012B24BF00F8013B00F871
:1008700001CB48BF00F8012B704710B5203AC0F0FB
:100880000B80B1E81850203AA0E81850B1E8185091
:10089000A0E81850BFF4F5AF5FEA027C24BFB1E8CE
:1008A0001850A0E8185044BF18C918C0BDE810403F
:1008B0005FEA827C24BF51F8043B40F8043B08BF48
:1008C0007047D20728BF31F8023B48BF11F8012B0F
:1008D00028BF20F8023B48BF00F8012B70474FF0BB
:1008E00000020429C0F0128010F0030C00F01B80FD
:1008F000CCF1040CBCF1020F18BF00F8012BA8BF0B
:1009000020F8022BA1EB0C0100F00DB85FEAC17CCE
:1009100024BF00F8012B00F8012B48BF00F8012B81
:1009200070474FF0000200B51346944696462039B2
:1009300022BFA0E80C50A0E80C50B1F12001BFF498
:10094000F7AF090728BFA0E80C5048BF0CC05DF8FE
:1009500004EB890028BF40F8042B08BF704748BF4C
:1009600020F8022B11F0804F18BF00F8012B7047C0
:1009700030B503681C1404EB21459BB289B21944BD
:1009800095FBF2F402FB145301EB034191FBF2F3EC
:1009900002FB131101E05B1E11440029FBDB016027
:1009A00003EB044030BD2DE9F04704464FF0FF3A19
:1009B00086B00068029060680390A0680490E068C8
:1009C0000190206900906569B5F1804F7EDCB5F13A
:1009D000404F7BDB3C22002102A8FFF7C9FF3C22ED
:1009E000014603A8FFF7C4FF1822014604A8FFF739
:1009F000BFFF411E40F2B55201A8FFF7B9FF0C221C
:100A0000064668460021FFF7B3FF00EB8600284446
:100A10003E4D00267D440FE09A1A491CCDE9001294
:100A2000022902D00C2907D104E0810704D0521C0E
:100A3000019201E0401C00960099019B6A5C9A4279
:100A4000EADD012906D11C2B04D1810702D0022145
:100A5000CDE90016A0F146018B2940D20199009BF7
:100A600000220F4602E0AE5C521C31449A42FADB8F
:100A7000012B02DD820700D0491E40F2B55540F23D
:100A80006D16C21700EB927292106A4300F00305D4
:100A900005FB062285070A4400D1521E049D02EB85
:100AA0004206DDF80C80A94605EBC605184EC5EBDD
:100AB0000515DDF808C008EB850535442E14ADB2E8
:100AC000C6EB0616C5EB0515B60000E007E00CEB1B
:100AD000850506EB154666F31F45360C03D05046D8
:100AE00006B0BDE8F0877F1CC4E90430521C072023
:100AF00092FBF0F304F1180600FB1320A6E80304B0
:100B00002846C4E90297C4E900C8E9E7F97401007E
:100B1000A039CEFD70B50C46016800204A1C34D0C7
:100B200040F2B5553C23B1FBF3F203FB12112160F7
:100B3000B2FBF3F103FB112218236260B1FBF3F265
:100B400003FB1211A16046F2E0310A440721B2FB17
:100B5000F1F301FB1321B2FBF5F305FB1322A161B5
:100B60009900B2F5B77F06D3521EAD10B2FBF5F374
:100B7000194405FB13220F4BE261616189077B4435
:100B80000CD03B2A0AD3521C08E02C212046FFF748
:100B9000C8FE0120E0600AE0521A401C195C914234
:100BA000FAD9521CC4E903204FF0FF3020622046DE
:100BB00070BD00008F73010070477047704710B51B
:100BC00000F0ACFA006810BD10B5044600F0A6FABB
:100BD000046010BD2DE9F0470D4699469246044643
:100BE00000F124080168880604D5E06921F01001AD
:100BF000216000E00120A84202DDA0EB050700E033
:100C00000027A16907EB050202EB0900A1EB000038
:100C1000A0612078C00602D42046FFF7EFFB002633
:100C200008E0D4E901211AF806009047206A401C28
:100C3000761C20624E45F4DB2078C0060AD520469B
:100C4000FFF7DCFB06E0D4E9012130209047206A61
:100C5000401C2062381EA7F10107F4DC07E0D4E94C
:100C6000012118F805009047206A401C2062281EC8
:100C7000A5F10105F3DC2046FFF7D7FB207800063D
:100C800002D50220BDE8F0870120FBE770472DE97F
:100C9000FF4F0C461E464FF0FF378BB0D2E90001E4
:100CA000DDF860800A908A46C1F30A5505B93D46D1
:100CB000002108464FF00000BAF1000F00F4400098
:100CC00005DA00EB80004FF4400101EA50004FEAE2
:100CD0009059B9F1010F00DDB9460A9850EA4A006F
:100CE0000ED044F61050A5F2FF3545432F14B8F14D
:100CF000000F1ED07542291E1EDDC9F100021CE046
:100D0000B8F1010F4FF0000001D0302103E0F243B1
:100D100005E02154401CB042FBDB3046002200219C
:100D200021540B99C1F80880C1E900200FB0BDE83B
:100D3000F08FBD1B6D1CDEE74A4600DA694206A84B
:100D400000F074FA06AB07CB03AB07C350460A9911
:100D500000F025FB8DE80700A0F500501F3800903B
:100D60000398002D09DD42F21F014A46084403A9F9
:100D70000390684600F084FD08E0A0F500504A4664
:100D80001F3803A90390684600F08EFD8DE8070028
:100D90000004000C03D04FF0FF30410800E0104683
:100DA000B8F1000F03D00022009215461FE0751E17
:100DB00006D400F0B5F902F1300262556D1EF8D587
:100DC000B3460122084302D000227F1C04E02078B1
:100DD000302801D100227F1E002A099787D01DE00C
:100DE000112D07DA00F09CF9303262556D1C50EA83
:100DF0000102F5D108430FD10021681E05E0235CF4
:100E0000625C6354491C2254401E8142F7DBAB46AE
:100E1000A81B401E099001E0009848B1002004F88A
:100E20000B000B98099AC0F80880C0E9002B7DE7F9
:100E300011264FF000085AE72DE9F04F8846044686
:100E4000D21D22F0070191B0D1E90001CDE90A01DC
:100E50000BF07FFE02460B98C00F01D02D2007E05B
:100E60002068810701D52B2002E0202101EAC00083
:100E7000032A099001D0072A05DB03464146204694
:100E800000F094F90FE12078800601D5E06900E0D8
:100E90000620B8F1650F814606D0B8F1660F18D06C
:100EA000B8F1670F72D132E00020B9F1110F009054
:100EB00001DB112301E009F101030AAA01A90CA831
:100EC000FFF7E5FEDDE90C70002609F10105834618
:100ED00048E001204B4600904FF000470AAA01A9C4
:100EE0000CA8FFF7D4FEDDE90DB00C995D46002695
:100EF00018B909F1010001EB0005B9EB050003D4B5
:100F0000C0F1FF3609F10105A5EB09002BE0B9F1AD
:100F1000010F01DA4FF001090020B9F1110F009023
:100F2000484601DD112300E003460AAA01A90CA8E6
:100F3000FFF7ADFEDDE90C704D46002683462078B4
:100F400000070AD4AB4500DA5D4601A8012D04DD97
:100F5000411911F8011C302907D04F4502DA17F169
:100F6000040F04DA0120824610E06D1EEEE7002F28
:100F700002DCED1B3E4403E0781CA84200DD054680
:100F8000A7EB060000F1010A4FF0004720780007A8
:100F900003D4AA4501DB4FF0FF3A0021B7F1004F1F
:100FA0000DF143088DF8431023D002202B23002F8E
:100FB00001DA7F422D234FF00A0C011EA0F101003F
:100FC00000DC4FB197FBFCF10CFB11720F4602F1F4
:100FD000300208F8012DF0E7A8F101000370218824
:100FE000090501D5452100E06521A0F1010800F8BF
:100FF000011C09980FA9A1EB080707F1070700B129
:10100000012000EB050101EBEA70A1693844A1EB76
:101010000000A0F10100A0612078C00602D42046A3
:10102000FFF7ECF9099830B1D4E901219047206A23
:1010300000F1010020622078C00620D52046FFF78D
:10104000DDF91CE0002E04DBB34502DD01A8805D64
:1010500000E03020D4E901219047206A761C401C32
:10106000BAF1010A20620AD100F053F8C0680168A1
:10107000405CD4E901219047206A401C2062281E70
:10108000A5F10105DEDC07E0D4E9012118F8010B28
:101090009047206A401C2062381EA7F10107F3DC4C
:1010A0002046FFF7C2F9022011B040E601694A1C50
:1010B00002610878704700B58FB0CDE90131002199
:1010C000059105497944CDE9031011466846FFF7BB
:1010D00051FA0FB000BD0000E5FFFFFF0A6802F8FB
:1010E000010B0A60704710B5436913B1AFF300807C
:1010F00001E0FFF7ACF9012010BD127800F12401E6
:101100000A7000224A700122EDE711684FF0FF32A9
:10111000E9E710B5FFF734F9203010BD0BF02EBD14
:1011200030B5B0F10A024FEA900E71F100034EEAB9
:10113000817EB0EB0E0061EB91014FEA101E4EEA8A
:10114000017E10EB0E0041EB11114FEA102E4EEA1A
:10115000016E10EB0E0041EB11214FEA104E4EEAEA
:10116000014E10EB0E0041EB1141401841F100011E
:101170004FEAD00040EA41704FEAD10110EB800500
:101180004FEA810444EA907444EB01046D1944EB86
:101190000404521BA3414FF0000348BF0A3200D59C
:1011A00030BD401C41F1000130BD00002DE9F0418F
:1011B0001F46044603260168072A01F4006004DB89
:1011C00008B116A505E016A503E008B115A500E0D5
:1011D00015A521F010002060A069C01EA0610FB10C
:1011E000401EA0612046FFF709F94FB1D4E9012163
:1011F00038469047206A401C2062C01C206206E0EE
:10120000206AFAE7D4E9012115F8010B9047761E10
:10121000F8D22046FFF709F9BDE8F0814E414E00B3
:101220006E616E00494E4600696E66002DE9F0471A
:10123000814616468AB035487844D0E90023806854
:101240000092CDE90130314878440C38D0E90223CE
:10125000006903924FF03702CDE9043041F69B302C
:10126000014491FBF2F0A0F1800502FB10141B3C3D
:1012700002D56442012000E00020DFF890A0804603
:101280000027FA44AAF1C60A0DE0E00709D0324669
:10129000684607EB47010AEB810100F005FB8DE88A
:1012A000070064107F1C002CEFD1184F7F44B43F1F
:1012B00017E0E80713D007EB04100DF1180A90E8C7
:1012C0000E00AAE80E00C068F04201D198190890FB
:1012D000324606A903A800F0E7FA03AB07C36D1076
:1012E000641C002DE5D132466946B8F1000F03A811
:1012F00002D000F0C5FA01E000F0D6FAC9E9000119
:10130000C9F808200AB0BDE8F0870000606D010050
:1013100001491820ABBEFEE7260002004FF0013C59
:1013200050F8042B51F8043B9A4221D1A2EB0C0354
:10133000934313EACC1317D150F8042B51F8043B14
:101340009A4215D1A2EB0C03934313EACC130BD1B1
:1013500050F8042B51F8043B9A4209D1A2EB0C033C
:10136000934313EACC13DBD04FF00000704700BF6B
:10137000D01A01BAB1FA81F101F0180122FA01F094
:10138000CB40C1F12001DBB2C0B2C01A2CFA01F38C
:10139000D11A914311EAC311E6D1704770475FEA51
:1013A000400C08BF91F0000F4FEA8C234FEAC12296
:1013B00043EA51514FEA1C5018BF00F5F0404FEA84
:1013C000300018BF41F000415FEA6C5C00F02980FA
:1013D000BCF1FF3F08BF40F080407047130C06BFD0
:1013E00012044FF0100C4FF0000C130E04BF120249
:1013F0000CF1080C130F04BF12010CF1040C930F35
:1014000004BF92000CF1020CD30F04BF52000CF188
:10141000010C11464FF00002A0F11F00A0EB0C00E0
:10142000704711F0004F08BF704731F000413FF4A2
:10143000D5AF0B0C06BF09044FF0100C4FF0000C99
:101440000B0E04BF09020CF1080C0B0F04BF0901BD
:101450000CF1040C8B0F04BF89000CF1020CCB0FB4
:1014600004BF49000CF1010CCCF12003A0EB0C00EF
:1014700022FA03F302FA0CF241EA030100F101003F
:10148000704720F07F4C80EA030023F07F47ACEBED
:10149000070303F57C5300F0004003F1FF032DE93F
:1014A00080494FEA154B09B44FEA144325EA0B4E25
:1014B00024EA03480FF2042606EB132749083E7876
:1014C0005FEA320203FB0667C7F5000707FB06F673
:1014D0004FEA54374FEAD64606F1020607FB066C80
:1014E000CCF1005C4FEA1C472CEA074C07FB06F4E2
:1014F0000CFB06F504EB15464FEA961634BF0020A8
:101500004FF000404FEAD13706FB07FC4FEA1C4C76
:101510000CFB0BF7D21B03FB0CF761EB07010CFB79
:101520000EF7B0EB074072EB17420CFB08F734BF25
:10153000A2EB0742B2EB074261EB17414FEA0C44C2
:101540004FEA910706FB07FC4FEA1C4C0CFB0BF71C
:10155000B0EBC74072EB573203FB0CF734BFA2EB82
:10156000C742B2EBC74261EB57310CFB0EF7B0EB51
:10157000C70072EB57720CFB08F734BFA2EBC7022F
:10158000B2EBC70261EB5771039F4FEA816141EAF9
:10159000921104EBCC044FEAD1374FEA826206FB8A
:1015A00007FC42EA90124FEA80604FEA1C4C0CFBA9
:1015B0000BF7D21B03FB0CF761EB07010CFB0EF7DB
:1015C000B0EB074072EB17420CFB08F734BFA2EBFD
:1015D0000742B2EB074261EB17414FEA8C554FEAE5
:1015E000910704EB9C2406FB07FC4FEA1C4C0CFB08
:1015F0000BF7B0EBC74072EB573203FB0CF734BF6D
:10160000A2EBC742B2EBC74261EB57310CFB0EF7BE
:10161000B0EBC70072EB57720CFB08F734BFA2EBBC
:10162000C702B2EBC70261EB577115EB4C254FEACD
:10163000816141EA92114FEA82624FEAD13742EA70
:10164000901206FB07FC44F100044FEA80604FEA69
:101650001C4C0CFB0BF7D21B03FB0CF761EB0701D7
:101660000CFB0EF7B0EB074072EB17420CFB08F7D0
:1016700034BFA2EB0742B2EB074261EB174115EB17
:101680001C154FEA813141EA92414FEA823242EA27
:1016900090424FEA80304FEA0C7644F1000448EA69
:1016A00003434EEA0B484FF0000EB2EB080C71EB0F
:1016B000030724BF624639464EEB0E0E4FF0000B77
:1016C0000018524149414BEB0B0BB2EB080C71EB8C
:1016D00003077BF1000B24BF624639464EEB0E0E2A
:1016E0004FF0000B0018524149414BEB0B0BB2EB92
:1016F000080C71EB03077BF1000B24BF62463946EF
:101700004EEB0E0E51EA020718BF46F0010616EB2B
:101710000E7655F1000254F1000103D5BDE88901B0
:10172000BDE80088BDE88901BDE80048B61952410E
:1017300041EB0101A3F10103704780807F7E7D7C36
:101740007B7A7978777676757473727171706F6E53
:101750006E6D6C6C6B6A6A696868676666656464FE
:10176000636362616160605F5F5E5E5D5D5C5C5B88
:101770005B5A5A59595858575756565555555454F7
:10178000535352525251515050504F4F4F4E4E4D55
:101790004D4D4C4C4C4B4B4B4A4A4A4949494848A1
:1017A00048474747474646464545454444444443E1
:1017B00043434342424242414141002B26D47700F9
:1017C00021D01CB54FEA370703B44FF010004FF09B
:1017D00010014FF000000FBCBDE810400BF1010BF1
:1017E000BBF1010F08BF5FEA170722BF12F1010228
:1017F00011F101014FF0004143F1000300F00040FE
:1018000043EA00007047F9D35708DAE746EA06468C
:1018100013F1400F4FEA16461FDD13F1200FDFBF13
:1018200016430A46002120335B42C8D0C3F120078B
:1018300046EA064602FA07F74FEA164646EA070660
:10184000C3F1200722FA03F201FA07F721FA03F1A4
:101850004FF0000342EA0702B1E746EA020646EA11
:1018600006464FEA164646EA0106BCBF46EA064669
:10187000360C4FF000034FF000024FF000019EE7DE
:101880002DE9C048934630B491E8380007C831EAE2
:10189000400C48BF34EA430C03D5FFF7F2FDFFF7D5
:1018A0008CFFF0BCBDE800882DE9C048934630B4F9
:1018B00091E8380007C810F0804F08BF13F0804F40
:1018C00003D100F005F8FFF778FFF0BCBDE8008811
:1018D00020F07F4780EA030023F07F4C07EB0C03E6
:1018E000A3F57C5300F00040A3F1FE0392F0000F3B
:1018F00000F0B38095F0000F00F077802DE90149EA
:101900004FEA11404FEA144621EA004800FB06FC6A
:1019100024EA064708FB06F607FB08F800FB07F772
:1019200018EB06484CEB164C4FEA124B18EB0748E5
:101930004FEA15464CEB174022EA0B4E0BFB06FC18
:1019400025EA06470EFB06F607FB0EFE0BFB07F724
:101950001EEB064E4CEB164C4FF000061EEB074EEE
:101960004CEB174B18EB0B0840F1000018EB0E0B7B
:1019700058EB000840F100008F1A4FF000013CBF07
:10198000C943661B14BFB5EB040C00213CBFC9431F
:10199000F61B4FEA17444EEA8E0E27EA04454FEA3B
:1019A0001C4704FB07622CEA074C05FB07F70CFBFE
:1019B00005F604FB0CFC16EB074642EB174216EB50
:1019C0000C4642EB1C421BEB060658EB020241415F
:1019D00046EA9E0601D5BDE80189B619524141EBA0
:1019E0000101A3F10103BDE801894FEA14454FEA63
:1019F000114724EA054621EA074C05FB07F406FBDC
:101A000007F70CFB06F105FB0CFC11EB074144EB5F
:101A100017444FEA124711EB0C4144EB1C4422EAF5
:101A2000074C05FB07F206FB07F70CFB06F605FB68
:101A30000CFC16EB074642EB174216EB0C4642EB4A
:101A40001C456A1854F1000148BF7047B61952414D
:101A500041EB0101A3F10103704795F0000F37D06E
:101A60004FEA11424FEA144721EA024624EA074CA2
:101A700002FB07F106FB07F70CFB06F402FB0CFC6C
:101A800014EB074441EB17414FEA154714EB0C44A4
:101A900041EB1C4125EA074C02FB07F506FB07F763
:101AA0000CFB06F602FB0CFC16EB074645EB174554
:101AB00016EB0C4645EB1C42121951F1000148BFD0
:101AC0007047B619524141EB0101A3F10103704780
:101AD0004FEA14454FEA114724EA054621EA074C2C
:101AE00005FB07F106FB07F70CFB06F24FF00006BB
:101AF00005FB0CFC12EB074241EB174112EB0C42C9
:101B000051EB1C4148BF7047921841EB0101A3F112
:101B1000010370470000000007F040BE10B500222E
:101B2000074B114601EB810403EB440434F81040E9
:101B3000491CC9B222441029F4D3C2F30F1010BDBE
:101B4000A601002009498A6942F010028A6108B1A1
:101B5000491501E04FF0007105480161416821F02D
:101B6000F00141F030014160704700000010024078
:101B700000100140254910B508684FF6FF021040DB
:101B8000234A40F4E06010430860062004F0B8FBEC
:101B9000072004F0B5FB082004F0B2FB092004F094
:101BA000AFFB0A2004F0ACFB172004F0A9FB1E20B9
:101BB00004F0A6FB272004F0A3FB09F039F8164A2D
:101BC0001448D16941F00201D161002101800185F1
:101BD00040F65F13838501238382018446F260030C
:101BE00003838383818601878187A0F84010018861
:101BF00041F001010180906940F0010090610748C7
:101C0000416841F44061416010BD00000CED00E00E
:101C10000000FA05000400400010024000000140EE
:101C200008B5024908440090008808BD006C0040D7
:101C300008B5024A10440090016008BD006C0040E5
:101C40000448007801284FF0000001D004F0DABB0E
:101C500009F00EB9280000200448017840780129D5
:101C600001D004F0CFBB09F003B900002800002028
:101C700070B515460E4604460CF0B6F821461648D7
:101C8000FEF71CFD144800F077FA304600F028F902
:101C900064211248FEF723FE002229460F4800F077
:101CA0005FF90F4C6070012000F008FA64210A48C7
:101CB000FEF715FE64210948FEF711FE0CF09CF8B2
:101CC0006078142802D0172802D003E0012070BDEC
:101CD0000CF07DF8002070BD1C470020F04500206E
:101CE0002001002010B504460CF07EF8214606487D
:101CF000FEF7E4FC044800F03FFA00F043FA044623
:101D00000CF07AF8204610BD1C4700202DE9F04168
:101D10001C4615460E4607460CF066F823462A4632
:101D20003146384600F07CF8142804D00CF064F8F2
:101D30000020BDE8F0810CF05FF80120F9E7000019
:101D40002DE9F0411C4615460E4607460CF04CF8AE
:101D500023462A463146384600F092F8084C607017
:101D60000CF04AF86078142802D0172803D004E059
:101D70000120BDE8F0810CF02AF80020F9E700000E
:101D80002001002010B504460CF02EF821460B4827
:101D9000FEF794FC094800F011F909494870012048
:101DA00000F08CF964210548FEF799FD642105488F
:101DB000FEF795FDBDE810400CF01EB81C47002052
:101DC00020010020F045002070B515460E4604465F
:101DD0000CF00AF821460F48FEF770FC0D4800F0A1
:101DE0007AF90D4CA9B200226070304600F0B8F8C4
:101DF0006070012000F062F9607064210548FEF710
:101E00006EFD64210548FEF76AFDBDE870400BF0E9
:101E1000F3BF00001C47002020010020F0450020F7
:101E20002DE9F0411C4616460F4605460BF0DCFF37
:101E300029461048FEF742FC0E4800F09DF938464E
:101E400000F04EF8A1B20022304600F062F80A4CD1
:101E50006070012000F032F964210648FEF73FFD72
:101E600064210648FEF73BFD0BF0C6FF6078BDE835
:101E7000F08100001C47002020010020F0450020D8
:101E80002DE9F0411C4617460E4605460BF0ACFF07
:101E900029461048FEF712FC0E4800F06DF938464E
:101EA00000F01EF8A1B20C4A304600F059F80A4C76
:101EB000A41E6070012000F001F964210548FEF7BE
:101EC0000EFD64210548FEF70AFD0BF095FF6078D2
:101ED000BDE8F0811C47002022010020F0450020D1
:101EE00010B50446392011F0DBF8E0B211F0E3F848
:101EF000C4F3072011F0DFF8C4F3074011F0DBF85A
:101F0000200E11F0D8F811F09BF8BDE810400AF04F
:101F10002FBD70B5064614460D463A2011F0C0F8A4
:101F2000E8B211F0C8F8280A11F0C5F811F088F8E5
:101F30000CB1002011E00AF01BFD1D280FD1304626
:101F400000F052F905463B2011F0AAF811F078F89C
:101F50002E44002CEFD0208828442080EBE770BD71
:101F60002DE9F041064614460D463C2011F098F844
:101F7000E8B211F0A0F8280A11F09DF811F060F80D
:101F80000CB1002020800C4F0AF0F2FC1E2810D16A
:101F9000304600F03CFA054638703D2011F080F8DC
:101FA00011F04EF82E44002CEED0208828442080DA
:101FB000EAE7BDE8F08100001E01002010B50446EC
:101FC00000F0C4F920785C2801D02F2803D100212B
:101FD000642000F032FABDE81040402000F096B9CD
:101FE00010B505F03BFF08B100F0CFF8BDE8104098
:101FF000302000F08BB9312000F088B910B50520F1
:102000000CF066FE5A2000F081F9044605200CF021
:102010005FFE204610BD00002DE9F74F82B08346D9
:1020200004980E46C700080E4FF0000AC1F30729B6
:10203000C1F307480090562011F032F8F0B211F0C9
:102040003AF8484611F037F8404611F034F8009855
:1020500011F031F8049811F02EF810F0F1FF3C4621
:1020600014E000BF0AF084FC05461E2801D07CB1B4
:1020700013E04021584600F0B4F9572011F010F851
:1020800010F0DEFF641E0BF1400BA4B2002CE9D16E
:102090000AF06EFC054614280ED0162D09D0FFF765
:1020A000ADFF0AF1010000F0FF0ABAF1030FC2D13F
:1020B000284605B0BDE8F08F1420FAE70146362027
:1020C00000F017B910B508B100F040F9BDE81040B4
:1020D000342000F01BB970B5054600F021F904006A
:1020E0000DD00146284600F021F8412807D01428D9
:1020F00003D0422800D1B32070BD432070BD281901
:10210000BDE87040FFF7DEBF10B5044600F01EF9D1
:1021100020785C2801D02F2803D10021642000F012
:102120008CF9BDE81040322000F0F0B870B50546DB
:1021300000200E46012401E0641CE4B2295D5C2904
:1021400013D02F2911D00029F6D100242844FFF7FD
:10215000DBFF002C08D0B44206D041280AD0142856
:1021600006D0422800D1B32070BD641CE4B2EDE774
:10217000432070BD2046E1E7FF21FFF7D7BF2B20AA
:1021800000F054B8682000F045B810B5222010F0D7
:1021900087FF10F07EFF044610F052FF204610BD6E
:1021A00004480178012901D0002070470021017006
:1021B00001207047380000202DE9F04110F069FF40
:1021C000064610F066FF054610F063FF044610F067
:1021D00060FF074610F034FF46EA052040EA04405D
:1021E00040EA0760BDE8F08170B50546272010F091
:1021F00057FF10F04EFF0400264607D010F049FFAD
:10220000641E05F8010B14F0FF04F7D110F018FF5D
:10221000304670BD10B504460C2010F041FF20463A
:1022200010F049FFBDE81040FFF7C6BF10B50446E7
:102230000A2010F035FF204610F03DFF10F029FF76
:10224000044610F0FDFE204610BD10B504464A209D
:1022500010F026FFE0B210F02EFFC4F3072010F0BC
:102260002AFFC4F3074010F026FF002010F023FFE0
:1022700010F0E6FEBDE810400AF07ABB2DE9F0410F
:1022800015000F46804601D0002028704C2010F029
:1022900007FF384610F00FFF10F0D2FE0AF068FB7F
:1022A0000646142823D1272010F0FAFE10F0F1FE84
:1022B00010F0EFFE044610F0ECFE10F0EAFE10F015
:1022C000E8FEFFF779FF014684B122464046FFF75A
:1022D000A3FE064614280AD108EB442815B1287835
:1022E00020442870381B10F0FF07CFD13046BDE8DE
:1022F000F08110B50C4610F0D3FE204610F0DBFE46
:1023000010F09EFEBDE810400AF032BB10B510F090
:10231000C7FE10F095FEBDE810400AF029BB000092
:10232000014600E0491C0A78002AFBD106E000BF04
:1023300011F8012D5C2A03D02F2A01D08142F7D158
:10234000814200D0491C081AC0B2704770B50546DA
:10235000012010F0A5FE10F09CFE432828D22B206F
:10236000FFF764FF102823D22F2010F099FE0020E1
:1023700010F0A1FE3220FFF7C9FF142818D1CF209A
:10238000FFF754FF040013D04C20FFF743FF00EB8E
:1023900004214C2000F051F85020FFF73BFF00EBE8
:1023A0000421502000F049F80021702000F045F889
:1023B0002F2010F075FE2C7806E000BF15F8014FB5
:1023C0005C2C0AD02F2C08D0204610F074FE002C74
:1023D000F4D1BDE8704010F033BE002010F06BFE69
:1023E000F7E770B505460C462C2010F059FE204644
:1023F00010F061FE3CB1287810F05DFE6D1C641E8B
:1024000014F0FF04F7D1BDE8704010F019BE70B5AC
:1024100005462D2010F044FE10F03BFE0400264639
:1024200007D0287810F047FE6D1C641E14F0FF04DE
:10243000F7D110F005FE304670BD70B505460C466C
:102440000D2010F02DFE284610F035FEE0B210F001
:1024500032FEC4F3072010F02EFEC4F3074010F044
:102460002AFE200E10F027FEBDE8704010F0E8BDF7
:1024700001200BF0C7BC10B503F04EFF02F0CCFDFD
:1024800007F042F9BDE81040FFF7F2BF10B504466F
:10249000012150200BF042FDC8B100200BF0D6FC0A
:1024A000207000200BF0D2FC607000200BF0CEFCFE
:1024B000A07001200BF0CAFCE0700BF069FD002158
:1024C00050200BF02BFD0BF063FD012010BD0BF035
:1024D0005FFD002010BDF8B50D4606460BF0A8FCC8
:1024E0006846FFF7D3FF040011D09DF801009DF866
:1024F000001000EB0120C0F30D0030809DF80300B8
:102500009DF8021000EB0120C0F38D0028800BF035
:1025100097FC2046F8BD000030B50E480E4C002355
:102520000078042234F81010401CC0B20D46052873
:1025300000D3002034F810104D1BADB2521E2B44B6
:1025400012F0FF02F0D1C3F38F004FF4FA71484349
:1025500030BD0000000000209C01002010B50446A2
:10256000124911F043FA124911F08AF8214611F08C
:102570003DFA104911F084F8214611F037FA0E495E
:1025800011F07EF8214611F031FA0C4911F078F87B
:10259000214611F02BFA0A4911F072F8214611F088
:1025A00025FABDE81040074911F06AB892EBD72C24
:1025B000EEC70B310DBDA2343E5ADE37774BBB3A26
:1025C00045B8353D145C1C3F2DE9F04706461A4FCF
:1025D0000898984691468A46002540B10CF0A6FA24
:1025E00004461649884504DA3046BDE8F0873C4683
:1025F000F7E7134890F8330018B15046FFF7AEFFE5
:1026000005464946404611F03BF8294611F07EFB4D
:10261000214611F0EBF904463946504611F030F8E6
:10262000084911F0E3F9314611F0E0F92146BDE81F
:10263000F04711F099B80000339388436F12833A42
:10264000CC48002066A6CA422DE9F0411F469046BC
:102650000C4606460CF06AFA05460F49204611F072
:102660000FF80E4911F0C2F904464146384611F000
:1026700007F8294611F0BAF9214611F075F83146EC
:1026800011F0B4F90649884202DA0020BDE8F08171
:10269000BDE8F04110F027BA3393884366A6CA42DA
:1026A0006F12833A2DE9FF4F87B090460F461D46C3
:1026B000182220496846FEF7E0F80026012440F27F
:1026C000013B40F2035A40F2056900BF0BF074FC75
:1026D000684602F07FFF58F8251017A35A460A20D3
:1026E00007F05AFE37F8151000235246484607F007
:1026F00011FF2146684602F089FF0446012807D0F1
:10270000022C0ED0002CE1D10BB03046BDE8F08F8A
:102710002B4642463946079800F010F807E001269C
:10272000D4E707EB45015246484602F009F8002875
:10273000CCD0F4E7E87801084C2F6D002DE9FF4F6D
:102740008FB00020069092481F460E46848831F8CC
:10275000175008880C90B1F802B0B1F804A0B1F895
:1027600006904FF0010852F827008A4911F03EF90F
:102770004FF07C5110F084FF11F0B8F884490F9AA3
:1027800001EB42010891888201210F9805F04EFB70
:102790000BF012FC80A1002002F0ECFEF580B58069
:1027A000758035800F980CF0D5F900907DA1002040
:1027B00002F0E0FE002340F2035229460A2007F00F
:1027C000A9FE7BA14FF4407002F0D4FE7AA340F240
:1027D000036240F20530009907F0DEFD77A14FF467
:1027E000C06002F0C7FE0F9805F00AFB014640F2F8
:1027F000056007F0BDFE64200CF000FA0028D1D07F
:102800000CF04AF811285BD008DC01281AD0042803
:1028100073D0092872D0102813D106E021286ED079
:10282000402808D041280CD16AE042F20F7085425E
:1028300005D26D1C02E0632D01D96D1EADB20120E1
:1028400006908EE008986421808A4843079004210E
:102850004FF4407002F084FE40F2036207A940F298
:10286000053001F07BFF00287BD0012006900798FF
:1028700011F074F8019095B1284610F0C3FD514A4B
:10288000514B10F0D3FD05460391009810F0CCFE9B
:102890002A46039B10F05EFC10F02AFC02E04B4934
:1028A00010F062FF014610F0FF4F06D0019810F0C3
:1028B0005BFF11F01BF885B253E04FF47A7550E0DE
:1028C00040F60200844201D2641CA4B264211120AB
:1028D0000FF048F850B138E0641CA4B2204611F063
:1028E0003DF83B4911F082F801F0C8FC03211120AA
:1028F0000FF038F80028EFD027E036E01BE020E0AA
:10290000C82C01D9641EA4B2642141200FF02AF81A
:1029100050B11AE0641EA4B2204611F01FF82C49F1
:1029200011F064F801F0AAFC012141200FF01AF81F
:102930000028EFD009E040F29E70844205D2643452
:1029400002E0DC2C01D9143CA4B2204611F006F8B8
:102950001F4911F04BF801F091FC0D48848000F004
:1029600035FFB8F1000F7FF419AF00210F9805F083
:102970005DFA0C983080A6F802B0A6F804A0A6F87C
:10298000069026F81750069813B0BDE8F08F0000A7
:10299000CC48002000002041B5F7CAD4C1F7C1BF20
:1029A00000000000C1F7C1BFB1B6C2CA3A000000C2
:1029B000C1F7C1BF3A0000004C2F6D00CAE4B3F666
:1029C0003A000000FCA9F1D24D62503F00007A4469
:1029D0000AD7233C2DE9F04F89B0834620223A499B
:1029E0006846FDF74AFF3949002001EBCB07012477
:1029F0003C3740F203560890BBF1010F05D0BBF104
:102A0000020F02D040F2015A00E0B246304940F2D3
:102A1000052801EB4B0540F2056900BF0BF0CCFA2D
:102A2000684602F0D7FD5946092007F0D5FEA98A6D
:102A300028A35246404607F06DFD398800233246F0
:102A4000484607F067FD2146684602F0DFFD0400B6
:102A50000FD0012C24D0022C2DD0032CE7D13246EC
:102A60003946484601F06CFE0028E0D0012008906D
:102A7000DDE7089800280AD0232117A003F004FC02
:102A8000062807D0072808D00124002CC6D109B099
:102A9000BDE8F08F00F0BCFAF9E700F04FFAF4E778
:102AA00005F114015246404601F04AFE0028BED00E
:102AB00000F08CFEBBE73946584600F015F80028B8
:102AC000ACD001200890A9E7C87801085848002038
:102AD000CC4800204C2F6D00B1A3B4E6B1EAB6A8F3
:102AE000CAFDBEDD203F00002DE9FF5F80460020CB
:102AF0000646029082460190CB480D464FF0000BEF
:102B000084885FEA080040F2035705D0012853D0BB
:102B1000B8F1020F04D14FE040F2015A0FF20C3B22
:102B20000BF04AFA0121404605F080F940460CF0CE
:102B300011F88146B8F1000F40D0BDA10020CDF8BA
:102B4000009002F017FD2988002340F203520A206A
:102B500007F0E0FCB9A14FF4407002F00BFD5B46BA
:102B60005246494640F2053007F016FCB5A14FF435
:102B7000C06002F0FFFC404605F042F9014640F219
:102B8000056007F0F5FC64200CF038F80028CDD083
:102B90000BF082FE11287DD041DC012857D004289B
:102BA00079D0092878D01028C0D1288842F20F7136
:102BB00088424AD2401C47E0BA46AFE70BF07EFE9F
:102BC00007460BF07FFF00210A46009101463B4675
:102BD0004846FFF7F9FC0746009095A1002002F057
:102BE000C9FC2988002340F203520A2007F092FC16
:102BF00096A14FF4007002F0BDFC5B465246394688
:102C000040F2052007F0C8FB8CA14FF4806002F071
:102C1000B1FC5B465246494640F20540A4E72128F4
:102C20007DD040280CD0412880D1C82C01D9641E09
:102C3000A4B2642141200EF095FE002871D0DBE0A3
:102C40002888632801D9401E288001266EE776482F
:102C5000B8F1000F00EB48004FF00401808A0190AA
:102C600033D04FF4407002F07BFC40F2035201A9D4
:102C700040F2053001F072FD0028E7D001260198EE
:102C800010F06CFE10F0D0FC724F734B3A4610F00F
:102C9000CDFB02E074E0BEE0A4E010F029FA81462A
:102CA0002888E8B310F0AEFB3A466B4B10F0BEFB41
:102CB00007460391009810F0B7FC3A46039B10F0CA
:102CC00049FA10F015FA074649E04FF4007002F097
:102CD00047FC40F2015201A940F2052001F03EFDFF
:102CE0000028B3D00126019810F038FE10F09CFCAB
:102CF0005A4A5B4B10F09AFB10F0FAF9814628888B
:102D0000B0B110F07FFB534A534B10F08FFB0746D6
:102D10000391009810F088FC3A46039B02E067E0BC
:102D20001CE057E010F016FA10F0E2F9074600E058
:102D30004F4617F0FF4F09D04A49484610F056FE5B
:102D4000394610F011FD10F0D1FD01E04FF47A701A
:102D5000288040460BF0FEFE81462FE74F4617F0D5
:102D6000FF4F09D03F49484610F040FE394610F069
:102D7000FBFC10F0BBFD01E04FF47A702880D5E633
:102D800040F60200844201D2641CA4B264211120E6
:102D90000EF0E8FD58B12FE0641CA4B2204610F0FC
:102DA000DDFD394610F022FE01F068FA00E02E4FFA
:102DB000032111200EF0D6FD0028EDD01CE0641E8A
:102DC000A4B2204610F0CAFD394610F00FFE01F003
:102DD00055FA00E0244F012141200EF0C3FD0028E8
:102DE000EDD009E040F29E70844205D2643402E0E6
:102DF000DC2C01D9143CA4B2204610F0AFFD1A49D6
:102E000010F0F4FD01F03AFA0748848000F0DEFC8F
:102E100002980028B3D00021404605F007F804B01E
:102E20003046BDE8F09F0000CC4800204C2F6D00DC
:102E3000C1F7C1BFB1B6C2CA3A000000B1EABFF6DD
:102E40003A000000CAE4B3F63A000000B9A4BFF6A5
:102E50003A000000FCA9F1D24D62503F9A9999992D
:102E60009999B93F00007A440AD7233C2DE9F047ED
:102E70002A49804601EB0800294990F82460012482
:102E800001EBC800002500F13C0A012E15D0022EEE
:102E900042D1244FDFF890900BF08EF8384602F0C4
:102EA00099FB2146384602F0B1FB0446052831D291
:102EB000DFE800F006181E282C001A4F283FE9E72B
:102EC000002D29D0232119A003F0DEF9062805D012
:102ED000072821D1BDE8F04700F030B8BDE8F04741
:102EE00000F096B809EB0612002304E00125D3E7B1
:102EF00009EB0612012351464046FFF7D3FB002899
:102F0000CAD0F3E709EB06120223F4E709EB061235
:102F10000323F0E7002CBFD1BDE8F087CC480020A8
:102F20005848002028790108E0770108B1A3B4E6E9
:102F3000B1EAB6A8CAFDBEDD203F000010B50622EA
:102F400031494FF4807001F0CFFD2F4845F6A5219F
:102F50004FF47A7482888A4203D0E200028044806F
:102F6000818072222949802001F0BEFD274845F664
:102F7000A422B0F87010914244D046F6B321A0F8D4
:102F80006410A0F86810A0F86C10A0F86640A0F8D3
:102F90006A40A0F86E4041818181C18101824182F5
:102FA000048544858485C48504864FF400410180EE
:102FB00041808180C18001818182C18201834183FE
:102FC0008183C483048444848484C4844486848642
:102FD000C486048744878487A0F84440A0F84C4006
:102FE000A0F85440A0F85640A0F85840A0F85A4025
:102FF000A0F85C40A0F85E40A0F86040A0F86240F5
:10300000A0F8702010BD000060010020584800208A
:1030100010B5062205494FF4807001F075FD72224B
:10302000BDE810400249802001F06EBD6001002023
:103030005848002010B50AF0BFFF05A1002002F09B
:1030400099FA0221BDE81040012002F029B80000E1
:10305000C8D5BEF920D7D4B6AFB5F7C1E30000009C
:1030600010B50AF0A9FF05A1002002F083FA04219F
:10307000BDE81040032002F013B80000CAB1BEF949
:1030800020D7D4B6AFB5F7C1E300000010B50AF001
:1030900093FF05A1002002F06DFA0021BDE8104069
:1030A000084601F0FDBF0000B7DBB3BE20D7D4B6A1
:1030B000AFB5F7C1E30000002DE9F14F88B0182249
:1030C00078496846FDF7D9FB774808990125848837
:1030D00076484FF4A06900EB410606F1140732363A
:1030E000002040F2054A40F2035B40F205280690BA
:1030F00001E0079850B10AF05FFF684602F06AFAF3
:103100000920089907F068FB002007903988002300
:103110004A46504607F0FEF9318800235A4640F2ED
:10312000056007F0F7F92946684602F043FA60A106
:103130004FF4007002F01EFA08980BF0A5FC01464F
:103140005DA340F20262404607F026F919200BF019
:1031500055FD0028EBD02946684602F02BFA0BF00B
:103160009BFB11284AD008DC012819D004282FD055
:1031700009287DD0102817D10CE021287ED04028C6
:1031800002D0412810D156E06D1CEDB2032D0BD3B7
:10319000012509E0012D00D803256D1EEDB203E0E5
:1031A000012D06D0022D08D0002DAFD109B0BDE809
:1031B000F08F4A463946504603E05A46314640F2BF
:1031C000056001F0BDFA0028A0D0012006909DE71F
:1031D00006980028EAD0232138A003F055F80628E5
:1031E00002D0072806D102E0FFF712FFDEE7FFF763
:1031F000A5FE0025002D7FF47BAFD7E740F6020047
:10320000844201D2641CA4B2642111200EF0AAFBF6
:1032100050B137E0641CA4B2204610F09FFB2B494C
:1032200010F0E4FB01F02AF8032111200EF09AFBC4
:103230000028EFD026E0C82C01D9641EA4B2642176
:1032400041200EF08FFB50B11CE0641EA4B220465A
:1032500010F084FB1D4910F0C9FB01F00FF80121AB
:1032600041200EF07FFB0028EFD00BE000E005E0EE
:1032700040F29E70844205D2643402E0DC2C01D915
:10328000143CA4B2204610F069FB104910F0AEFBCC
:1032900000F0F4FF0448848000F098FA002D7FF4D9
:1032A00028AF83E798780108CC48002058480020D0
:1032B000BCC6D1B93A0000006B506100B1A3B4E6BE
:1032C000B1EAB6A8CAFDBEDD203F00000AD7233C04
:1032D0002DE9F14F724882B0012584887148029926
:1032E0004FF4007B00EB410606F10A070020283668
:1032F00040F2052940F2026840F2035ACDF800007E
:103300000AF05AFE2946684802F054F9664802F06D
:1033100061F90920029907F05FFA398800234246D3
:1033200040F2054007F0F6F831880023524640F29B
:10333000056007F0EFF829465B4802F03BF95BA116
:10334000584602F017F902980BF0BEFB014659A34C
:103350004246484607F020F819200BF04FFC0028A1
:10336000EDD00BF099FA112845D008DC012819D0CE
:1033700004282CD0092878D010280CD10CE0212862
:1033800079D0402802D0412805D151E06D1CEDB222
:10339000032D00D301257EE0012D00D803256D1EED
:1033A000EDB278E0012D02D0022D74D104E0424646
:1033B000394640F2054003E05246314640F205608E
:1033C00001F0BEF900289BD00120009098E70098FA
:1033D000002862D0232138A002F056FF062802D030
:1033E000072858D103E0BDE8FE4FFFF711BEFFF7F5
:1033F000A5FD00254FE040F60200844201D2641C86
:10340000A4B2642111200EF0ADFA50B137E0641C73
:10341000A4B2204610F0A2FA2B4910F0E7FA00F00F
:103420002DFF032111200EF09DFA0028EFD026E099
:10343000C82C01D9641EA4B2642141200EF092FA76
:1034400050B11CE0641EA4B2204610F087FA1E4959
:1034500010F0CCFA00F012FF012141200EF082FAA8
:103460000028EFD00BE000E005E040F29E708442BF
:1034700005D2643402E0DC2C01D9143CA4B220460D
:1034800010F06CFA104910F0B1FA00F0F7FE0448A1
:10349000848000F09BF9002D98D1BDE8FE8F0000DC
:1034A000CC4800205848002080780108CEC2B6C819
:1034B0003A000000A1E60000B1A3B4E6B1EAB6A864
:1034C000CAFDBEDD203F00000AD7233C2DE9F14FA5
:1034D00088B0182278496846FDF7CFF977480899EF
:1034E0000125848876484FF4A06900EB410700204D
:1034F00007F11E0640F2054A40F2035B40F2052840
:10350000069001E0079850B10AF056FD684602F0B7
:1035100061F80920089907F05FF9002007903988C1
:1035200000234A46504606F0F5FF318800235A46EC
:1035300040F2056006F0EEFF2946684602F03AF8D0
:1035400060A14FF4007002F015F808980BF036FBFC
:1035500001465EA340F20362404606F01DFF1920BB
:103560000BF04CFB0028EBD02946684602F022F80D
:103570000BF092F911284AD008DC012819D0042850
:103580002FD009287DD0102817D10CE021287ED01B
:10359000402802D0412810D156E06D1CEDB2032D19
:1035A0000BD3012509E0012D00D803256D1EEDB2D6
:1035B00003E0012D06D0022D08D0002DAFD109B0B7
:1035C000BDE8F08F4A463946504603E05A46314638
:1035D00040F2056001F0B4F80028A0D00120069068
:1035E0009DE706980028EAD0232139A002F04CFE7E
:1035F000062802D0072806D102E0FFF709FDDEE722
:10360000FFF79CFC0025002D7FF47BAFD7E740F649
:103610000200844201D2641CA4B2642111200EF085
:10362000A1F950B137E0641CA4B2204610F096F91D
:103630002B4910F0DBF900F021FE032111200EF0E0
:1036400091F90028EFD026E0C82C01D9641EA4B25D
:10365000642141200EF086F950B11CE0641EA4B232
:10366000204610F07BF91E4910F0C0F900F006FE6C
:10367000012141200EF076F90028EFD00BE000E0A8
:1036800005E040F29E70844205D2643402E0DC2CF6
:1036900001D9143CA4B2204610F060F9104910F092
:1036A000A5F900F0EBFD0548848000F08FF8002DAF
:1036B0007FF428AF83E70000B0780108CC480020F1
:1036C00058480020B2EED1B93A0000006B506100BA
:1036D000B1A3B4E6B1EAB6A8CAFDBEDD203F000042
:1036E0000AD7233C70B5442207494FF4C07001F05B
:1036F000FBF9054C054DA08E6968884203D000F0A7
:1037000007F8A888A08670BDCC480020880000205B
:1037100030B500F039F8054C054DA08E2968884277
:1037200003D000F007F82888A08630BDCC480020E0
:103730008C00002012484FF49671F0228181002104
:103740008173417242810122C2738270C17002741E
:1037500042F2957343824FF4FA638380322383717C
:103760000223C3714FF47A738385C3856423038670
:1037700080F833100349016480F83C207047000052
:10378000CC480020D9AB090010B50F480224002115
:1037900000F8144C01744FF47A7202804174C8220C
:1037A0004280817482800123C3740522C280037524
:1037B000028141754FF4FA7141818281C28100F822
:1037C0000C4C837710BD0000E048002044220249E1
:1037D0004FF4C07001F098B9CC4800202DE9F05F9B
:1037E0000025394C2E4640F2015740F207384FF47D
:1037F000AF6A40F207594FF4FA6B00BF0AF0DCFBE6
:10380000324801F0E7FEA18A31A33A46404606F06D
:1038100081FE618D31B130A340F20252484606F07C
:1038200079FE03E02EA1484601F0A4FE6D1CE9B22A
:10383000264801F0EBFE05001AD0012D2ED0022DF6
:10384000E1D1618D24A340F20252484606F062FEA7
:103850001D4940F202522A31484600F071FF00280B
:10386000D1D0618D594501D9A4F82AB00126CAE703
:10387000002E27D023211DA002F006FD02280BD028
:10388000062805D007281DD1BDE8F05FFFF72ABF45
:10389000BDE8F05FFFF79ABF0125AFE70A493A4656
:1038A0001431404600F04CFF0028ACD0A08A5045AF
:1038B00002D9A4F814A0D9E74FF416718842D5D2E2
:1038C000A182D3E7BDE8F09FCC480020807C0108AE
:1038D000204C2F6D00000000206B506100000000A4
:1038E000205BCDA3D3C35D2020000000B1A3B4E6CC
:1038F000D0DEB8C4BDE1B9FB203F00002DE9F05F88
:103900000025344C2F4640F2063840F2035640F270
:1039100006594FF4967A4FF0640B00BF0AF04CFB47
:103920002D4801F057FEE18A2CA33246404606F0AE
:10393000F1FD218B29A33246484606F0EBFD6D1CB4
:10394000E9B2254801F062FE050011D0012D25D015
:10395000022DE8D11F4932461831484600F0F0FEEA
:103960000028E0D0218B51452BD9A4F818A02CE0D9
:10397000002F2CD023211BA002F086FC02280BD0A4
:10398000062805D0072822D1BDE8F05FFFF7AABEC0
:10399000BDE8F05FFFF71ABF0125BFE70D493246CA
:1039A0001631404600F0CCFE0028BCD0E18A5145DB
:1039B00002D9A4F816A008E0642906D2A4F816B02B
:1039C00003E0642901D2A4F818B00127ABE7BDE8F1
:1039D000F09F0000CC480020587C0108204C2F6D3F
:1039E00000000000B1A3B4E6D0DEB8C4BDE1B9FB6D
:1039F000203F00002DE9F05F0025424C2F4640F2A9
:103A0000015940F2062840F2064B40F2035640F2BC
:103A1000066A00BF0AF0D0FA3B4801F0DBFDA18A3C
:103A20003AA34A46404606F075FDE18A37A332467E
:103A3000584606F06FFD218B34A33246504606F0FF
:103A400069FD6D1CE9B2304801F0E0FD050014D0BD
:103A5000012D28D0022D39D0032DE0D1294932463D
:103A60001831504600F06CFE0028D8D0208B4FF45F
:103A7000967188423ED9218340E0002F40D0232117
:103A800024A002F001FC02280BD0062805D007284C
:103A900036D1BDE8F05FFFF725BEBDE8F05FFFF768
:103AA00095BE0125B6E717494A461431404600F055
:103AB00047FE0028B3D0A08A4FF4AF61884203D8F4
:103AC0004FF41671884219D2A18217E00D4932468F
:103AD0001631584600F034FE0028A0D0E08A4FF49A
:103AE0009671884201D9E18208E0642806D26420F8
:103AF000E08203E0642801D26420208301278EE75E
:103B0000BDE8F09FCC480020987C0108204C2F6D28
:103B100000000000B1A3B4E6D0DEB8C4BDE1B9FB3B
:103B2000203F00002DE9F84FDFF8E8B0012500261E
:103B30009BF80940BBF80A00ADF8000040F20157BD
:103B400040F20958DFF8D09040F2093A0AF034FA0E
:103B50003148183001F03EFD04EB440109EB41010E
:103B6000504601F007FD2DA33A46BDF8001040462F
:103B700006F0D0FC28482946183001F047FD050022
:103B800023D0012D1DD0022DE6D13A46694640468C
:103B900000F0D6FD0028DFD0BDF80000962804D242
:103BA0009620ADF800000AF012F9BDF800104FF4AD
:103BB0009670814203D9ADF800000AF008F9012699
:103BC000CAE7641C04F00304F9E7002E0BD023219C
:103BD00013A002F059FB02281AD0062805D00728A6
:103BE00001D1FFF77FFDBDE8F88F8BF80940BDF8E4
:103BF00000005D46ABF80A00FFF7E8FD68890FF0AA
:103C0000ADFE0B490FF0F2FE697A0EF0D7FCEAE741
:103C100001259BE7CC480020B87B0108A1E6000005
:103C2000B1A3B4E6C5E4D6C3CAFDBEDD203F0000A3
:103C3000CDCCCC3D2DE9F84FDFF804B10125414F43
:103C40009BF80E40BBF80C00ADF80000002640F2D7
:103C5000015940F2096A40F2093800BF0AF0ACF994
:103C60006CB1384810F1800001F0B4FC57F8241012
:103C7000404601F07FFC012C04D09CB309E03148A0
:103C80009830F1E730A34A46BDF80010504606F0E0
:103C900041FC2C482946803001F0B8FC05002BD0AF
:103CA000012D24D0022DE1D1012CD7D14A466946FD
:103CB000504600F045FD0028D0D0BDF80000962801
:103CC00004D29620ADF800000AF081F8BDF800108B
:103CD0004FF4AF70814203D9ADF800000AF077F8D5
:103CE0000126BBE7FFE7174829469830D4E70CB117
:103CF0000024F5E70124F3E7002E0BD0232113A0C5
:103D000002F0C2FA022819D0062805D0072801D1EE
:103D1000FFF7E8FCBDE8F88FBDF80000ABF80C0039
:103D20005D468BF80E40FFF751FDA8890FF016FE97
:103D30000A490FF05BFE0EF055FCEBE701258DE71D
:103D4000CC480020687B0108A1E60000B1A3B4E6DE
:103D5000C5E4D6C3CAFDBEDD203F0000CDCCCC3DBE
:103D60002DE9F047012500260AF026F91D4F4FF4F2
:103D700080694FF000081C4C0AF01EF919481830F1
:103D800001F028FC607857F82010484601F0F2FB5B
:103D900014482946183001F039FC054601280DD099
:103DA000002DE9D1002E1BD0042110A002F06CFAE6
:103DB00006280FD0BDE8F047FFF794BC0AF0FCF8E6
:103DC0006078401CC0B26070062801D384F801807E
:103DD0000126D1E7FFF79CFCBDE8F047FFF7F6BCF2
:103DE000BDE8F087C8750108CC480020B1A3B4E64F
:103DF000C5E4D6C33F0000002DE9F04701250026A9
:103E00001B4F1C4C40F20549B04600BF0AF0D4F8E5
:103E10001748383001F0DEFB207857F8201048466C
:103E200001F0A8FB12482946383001F0EFFB0546A7
:103E300001280DD0002DE9D1002E17D004210EA0AD
:103E400002F022FA06280DD0BDE8F047FFF74ABC81
:103E500020780126401CC0B220700428D6D384F8F4
:103E60000080D3E7BDE8F047FFF7B0BCBDE8F087BE
:103E7000B8750108CC480020B1A3B4E6C5E4D6C3A8
:103E80003F0000002DE9F0470025284C2F4640F266
:103E9000025840F207364FF4FA6900BF0AF08CF876
:103EA000234801F097FB618D29B122A34246304699
:103EB00006F030FB03E021A1304601F05BFB6D1CF6
:103EC000E9B21B4801F0A2FB050016D0012DEAD192
:103ED000618D18A34246304606F01CFB134942464A
:103EE0002A31304600F02CFC0028DCD0618D494599
:103EF00001D9A4F82A900127D5E7002F13D0232158
:103F000011A002F0C1F902280BD0062805D007281D
:103F100009D1BDE8F047FFF7E5BBBDE8F047FFF783
:103F200055BC0125BAE7BDE8F0870000CC48002069
:103F3000707C0108206B506100000000205BCDA365
:103F4000D3C35D2020000000B1A3B4E6D0DEB8C426
:103F5000BDE1B9FB203F00002DE9FF5F9548DFF888
:103F600058820125D0E90012CDE90212D0E90210F1
:103F7000CDE900100DF1080BA8F107064FF0030979
:103F80000024FFF7AFFB8D4890F8241061B10129A0
:103F900002D0022905D101E0002100E0012188F8CA
:103FA000001000213170012490F8251069B1012919
:103FB00002D0022906D103E0022108F8041001E032
:103FC00008F8049001213155641C90F8261069B15D
:103FD000012902D0022906D103E0022208F80420B8
:103FE00001E008F8049002213155641C90F8271074
:103FF00069B1012902D0022906D103E0022208F8A2
:10400000042001E008F8049006F80490641C90F87D
:10401000281069B1012902D0022906D103E002214A
:1040200008F8041001E008F8049004213155641CDC
:1040300090F8291061B1012902D0022905D101E0CF
:10404000042200E0052208F8042005213155641CF3
:10405000007A90B1012808D0022802D0032809D1A3
:1040600005E0062008F8040004E0072100E008212C
:1040700008F8041006203055641C022D2AD0032DA8
:104080004DD009F099FF0027A7421ED2032C01D87A
:104090004BA100E04EA1002001F06CFAB7FBF9F152
:1040A00009FB117A4349F25D10313BF81A0051F8CF
:1040B000221001F05FFA3F4918F807202C313DF833
:1040C0001A0051F8221001F055FA7F1CFFB2032F9D
:1040D000DAD348E009F070FF032741A1002001F086
:1040E00049FAA74216D2B7FBF9F109FB117A314917
:1040F000F25D10313BF81A0051F8221001F03AFA43
:104100002C4918F807202C313DF81A0051F82210DC
:1041100001F030FA7F1CFFB2062FDED323E009F056
:104120004BFF062732A1002001F024FAA74216D245
:10413000B7FBF9F109FB117A1E49F25D10313BF82A
:104140001A0051F8221001F015FA1A4918F8072040
:104150002C313DF81A0051F8221001F00BFA7F1CA7
:10416000FFB2092FDED3A41CB4FBF9F0C4B20AF0ED
:1041700093FB082818D007DC012803D0022810D0B0
:1041800004280ED1BDE8FF9F102804D0202802D0BB
:10419000402806D108E06D1E15F0FF057FF4F0AE53
:1041A0002546002DFAD1EDE76D1CEDB2A542F8D9F8
:1041B0000125E5E6F87D01086D010020CC480020CE
:1041C000B1C3B0B2D7B0C7E9BFF6202000000000ED
:1041D000B1C3B0B2D7B0C7E9BFF6203100000000CC
:1041E000B1C3B0B2D7B0C7E9BFF6203200000000BB
:1041F000B1C3B0B2D7B0C7E9BFF6203300000000AA
:104200002DE9FF5F00249B4691468A4626462546B7
:104210003AF814000FF0A2FB17490FF0E7FBB04685
:1042200059F8246001462F4630460FF09DFA0546A6
:10423000014600980FF0A6FC03D2641CE4B25C4572
:10424000E6D3394628460FF061FD04464146304624
:104250000FF05CFD21460FF087FA044639460098BE
:104260000FF054FD21460FF0C1FB04B04146BDE8FC
:10427000F05F0FF005BA00006F12833A02490A7826
:10428000012A00D148607047280000200149487089
:10429000FDF7E2BC280000200A4980B1012806D0C1
:1042A000022807D0032808D04FF0FF3007E043F67C
:1042B000982004E047F2305001E04EF6602048605C
:1042C000704700000800002010B506F0DAFD07492D
:1042D00028B101200870BDE8104006F045BD00205F
:1042E0000870BDE8104002F033B80000280000203C
:1042F000C0B2202800D27F20024901EB0010A0F5B7
:1043000000707047F43E010870B5C0B2104C60F305
:104310001F2101234FF49F729818400804EB4005B9
:1043200014F810606D7805EB0625ADB2A94203D1F3
:10433000084901EB401070BD03D900F1010083B2C0
:1043400002E0A0F1010082B29342E5D9014870BDBC
:10435000F44401087247010870B50C46064615463C
:104360000021A02009F0DAFD60B1300A09F0A4FDB7
:1043700040B1F0B209F0A0FD20B10121A02009F068
:10438000CDFD48B909F004FE002070BD002009F001
:104390005DFDC04304F8010B6D1E15F0FF05F5D15E
:1043A000012009F053FDC043207009F0F1FD012008
:1043B00070BD000070B50C46064615460021A020D1
:1043C00009F0ACFD08B3300A09F076FDE8B1F0B2AF
:1043D00009F072FDC8B100BF14F8010BC043C0B2B0
:1043E00009F06AFD88B16D1E15F0FF05F4D109F0E2
:1043F000CFFDA0254FF4C8740021284609F08EFD9A
:1044000030B109F0C5FD012070BD09F0C1FD03E028
:10441000641E2404240CEFD1002070BD10B500F000
:10442000F1FF10BD034901200870034940030860F3
:1044300070470000380000201404014010B500F05F
:10444000E1FF10BD10B500F0DDFF10BD10B500F0AC
:10445000D9FF10BD10B500F0D5FF10BD10B500F0AC
:10446000D1FF10BD2DE9F34FDFF86C9191B001261B
:10447000B9F8048001A91298FCF74CFB06984FF498
:10448000FA6B00F26C7084B2059840F6330A401C57
:10449000C5B20498C7B22B46224650A10CA800977B
:1044A000FBF798FF0CA9119801F064F8012E04D0D5
:1044B000022E05D0032E08D11BE00421119802E042
:1044C0001198401D17E001F04BF80AF0E5F91028AB
:1044D0002AD013DC01285BD0042868D008284BD0F0
:1044E0000928D8D140F29E714046884568D2643090
:1044F00064E01198083080B20221E4E7202841D01E
:10450000212856D04028C6D1012E29D0022E2DD0E8
:10451000032EC0D17F1E17F0FF07BCD129462046CD
:1045200009F054FD0746B6E7012E0DD0022E11D03A
:10453000032EB0D12946204609F048FD7F1CFFB26A
:10454000B842A8D20127A6E7641CA4B25445A2D958
:104550005C46A0E76D1CEDB20C2D9CD901259AE7B5
:10456000641EA4B25C4596D2544694E76D1E15F0C5
:10457000FF0590D10C258EE7761CF6B2032E8AD962
:10458000012688E7761E16F0FF0684D1032682E70F
:10459000A4F26C746D1E0497CDE9055401A8FCF7D4
:1045A00002FA12990860012013B0BDE8F08F0020D4
:1045B000FAE74046B8F1DC0F02D9143880B28046E1
:1045C0000FF0CCF909490FF011FAFFF757FEA9F8DF
:1045D0000480FFF7FBF85EE7CC48002025303475F7
:1045E0002D253032752D2530327500000AD7233C39
:1045F0002DE9F0474C4F894692B082460124BD8890
:1046000001A94846FCF786FA4FF018083C260198A5
:10461000DDE90232009045A10CA8FBF7DBFE0CA9F6
:10462000504600F0A7FF012C04D0022C05D0032C2B
:1046300008D11AE00221504602E00AF1030016E018
:1046400000F08EFF0AF028F9102827D012DC01288C
:104650004FD0042856D008283FD00928D7D140F29F
:104660009E70854254D2643551E00AF1060080B252
:104670000221E5E7202836D0212845D04028C6D1A0
:10468000012C1AD0022C20D0032CC0D101983B3031
:10469000B0FBF6F106FB11000190B8E7012C06D043
:1046A000022C07D0032CB2D10198401CF0E70398EC
:1046B000401C04E00298401C09E003981730B0FB4E
:1046C000F8F208FB12000390A1E702983B30B0FB20
:1046D000F6F106FB1100029099E7641CE4B2032C8A
:1046E00095D9012493E7641E14F0FF048FD10324AD
:1046F0008DE701A8FCF757F9C9F80000012012B0B6
:10470000BDE8F0870020FAE7DC2D01D9143DADB2F9
:1047100028460FF023F909490FF068F9FFF7AEFDBD
:10472000BD80FFF753F872E7CC4800202530327582
:104730003A253032753A2530327500000AD7233CCD
:1047400038B50C4609880091694600F007F8002842
:1047500002D000982080012038BD00002DE9F74FDD
:1047600090B000251198904612F0FF07016871483B
:1047700084884FEA1220814601D0A9F10100C6B217
:104780006D48A6EB070A50F82600B1FBF0F200FBDB
:10479000121B58460FF0E2F86749283151F82710EC
:1047A0000EF0E2FF0EF040FFCDE9000108F0FF033C
:1047B0004A4662A10AA8FBF70DFE0AA9109800F06C
:1047C000D9FE1098AA45284400DC401C80B2012183
:1047D00000F0C6FE681C0090864206D35648711B46
:1047E00000EB810050F8040C00E0012001900AF079
:1047F00053F8112857D01CDC082843D007DC0128C7
:104800004CD00428C5D1002013B0BDE8F08F092892
:1048100079D01028BDD101990A20BBFBF1F1B1FB81
:10482000F0F200FB1210092815D001990BEB0100E2
:1048300020E020282AD021286BD040280ED0412803
:10484000A7D1C82C01D9641EA4B2642141200DF067
:1048500089F8A0B361E0019840420EE001990A2076
:10486000BBFBF1F1B1FBF0F200FB121020B101999A
:10487000ABEB010083468CE7019800EBC00101EB34
:104880000B00F7E70098B0FBF6F103E0A819401E13
:1048900090FBF6F106FB1100C5B27AE711990120F1
:1048A000C1F800B0B0E740F60200844201D2641CB7
:1048B000A4B2642111200DF055F858B12DE01AE092
:1048C000641CA4B220460FF049F81E490FF08EF880
:1048D000FFF7D4FC032111200DF044F80028EFD09D
:1048E0001BE0641EA4B220460FF038F815490FF003
:1048F0007DF8FFF7C3FC012141200DF033F80028BB
:10490000EFD00AE0FFE740F29E70844205D26434A3
:1049100002E0DC2C01D9143CA4B220460FF01EF8B2
:1049200008490FF063F8FFF7A9FC02488480FEF7FE
:104930004DFF2EE7CC4800206074010825302A2E58
:104940002A6600000AD7233C2DE9F35F0A888846CF
:104950004FF03C0BB2FBFBF14FF06409B1FBF9F4F3
:104960005B4809FB14140BFB11250027B0F804A0C9
:10497000012600BFC4EB041005EB8001009806F08F
:1049800011F8012E06D0022E07D0032E18D0042EC7
:1049900008D118E00121009802E00098401C14E0C2
:1049A00000F0DEFD09F078FF102818D010DC012897
:1049B00065D004286BD0082855D0092852D168E06A
:1049C0000098C01C01E00098001D80B20121E7E7BB
:1049D00020284ED0212863D0402874D110E0012E29
:1049E00006D0022E06D0032E06D0042E6BD105E091
:1049F0000A340FE0611C14E00A3520E0691C25E050
:104A0000012E06D0022E0AD0032E17D0042E5AD122
:104A10001AE05A34B4FBF9F109FB1144AAE704F196
:104A200009010A20B1FBF0F200FB1211B4FBF0F017
:104A300000EB800001EB4000C4B29BE73235B5FBD0
:104A4000FBF10BFB115595E705F109010A20B1FBBC
:104A5000F0F200FB1211B5FBF0F000EB800001EB6F
:104A60004000C5B22FE0761CF6B2042E2BD90126E9
:104A700029E0761E16F0FF0625D1042623E0C4EBBC
:104A8000041005EB8001A8F8001001271DE00027A5
:104A90001BE040F29E7150468A4508D2643004E023
:104AA0005046BAF1DC0F02D9143880B282460EF0BB
:104AB00055FF08490EF09AFFFFF7E0FB0449A1F803
:104AC00004A0FEF783FE002EA8D13846BDE8FC9F67
:104AD000CC4800200AD7233C024945F63D20086017
:104AE000704700008C00002070B514460D46064645
:104AF00009F09EF9E2B229463046FFF72DFC044644
:104B000009F09EF9204670BD70B514460D46064664
:104B100009F08EF9E2B229463046FFF74BFC044615
:104B200009F08EF9204670BD10B51BA0FDF72AF9DB
:104B300010221B491BA0FDF747F93022102119A0B4
:104B4000FDF796F81BA0FDF71DF9102214491BA0D4
:104B5000FDF73AF94022102118A0FDF789F81BA0B3
:104B6000FDF710F910220E491AA0FDF72DF9702259
:104B7000102118A0FDF77CF81AA0FDF703F9102208
:104B800007491AA0FDF720F97022BDE81040102156
:104B900016A0FDF76DB800005C53445F4149520018
:104BA000240100205C53445F4149525C4149522E2C
:104BB000545854005C53445F545350005C53445F5A
:104BC0005453505C5453502E545854005C53445F1B
:104BD000523234005C53445F5232345C5232342ED1
:104BE000545854005C53445F534849005C53445F3D
:104BF0005348495C5348492E5458540010B5ADF5FC
:104C0000007D4FF40074224648496846FBF735FEA4
:104C100047A1002000F0AEFC0F23484A002148A025
:104C2000FDF774F800286DD00F2244496846FBF761
:104C300088FD20B12246694641A0FDF7C5F845A18F
:104C4000002000F097FC0F233C4A002144A0FDF710
:104C50005DF800285AD00F2238496846FBF771FDED
:104C600020B1224669463EA0FDF7AEF841A10020E2
:104C700000F080FC0F23314A002141A0FDF746F8E7
:104C8000002847D00F222D496846FBF75AFD20B176
:104C9000224669463AA0FDF797F83EA1002000F0B1
:104CA00069FC0F23254A00213DA0FDF72FF80028BD
:104CB00034D00F2221496846FBF743FD20B122463C
:104CC000694637A0FDF780F83AA1002000F052FCB9
:104CD0000F231A4A00213BA0FDF718F8002821D025
:104CE0000F2216496846FBF72CFD20B12246694683
:104CF00034A0FDF769F838A1002000F03BFC0DF569
:104D0000007D10BD38A0FDF73DF893E739A0FDF711
:104D100039F8A6E73AA0FDF735F8B9E73BA0FDF76B
:104D200031F8CCE73CA0FDF72DF8DFE76072010811
:104D30004C6F6164696E672E00000000B846002069
:104D40005C5553425F4149525C4149522E5458547C
:104D5000000000004C6F6164696E672E2E00000039
:104D60005C5553425F5453505C5453502E54585426
:104D7000000000004C6F6164696E672E2E2E0000EB
:104D80005C5553425F5232345C5232342E54585484
:104D9000000000004C6F6164696E672E2E2E2E009D
:104DA0005C5553425F5348495C5348492E5458540C
:104DB000000000004C6F6164696E672E2E2E2E2E4F
:104DC000000000005C5553425F504F575C504F57F6
:104DD00045522E54585400004C6F6164696E672E22
:104DE0002E2E2E2E2E0000005C5553425F4149525C
:104DF000000000005C5553425F5453500000000017
:104E00005C5553425F523234000000005C555342FF
:104E10005F534849000000005C5553425F504F57B4
:104E20000000000010B50C4641011023224603A0EB
:104E300004F042FB002800D1206010BD5C53445FA9
:104E40004149525C4149522E5458540010B50C4609
:104E500081014023224603A004F02EFB002800D14C
:104E6000206010BD5C53445F5232345C5232342EA9
:104E70005458540010B50C4681014023224603A02B
:104E800004F01AFB002800D1206010BD5C53445F81
:104E90005348495C5348492E5458540010B50C46A9
:104EA00000EB8000C1002423224603A004F004FB91
:104EB000002800D1206010BD5C53445F5453505C07
:104EC0005453502E5458540070B50D460446642176
:104ED0000748FBF704FD102229460548FBF788FC2C
:104EE0006101BDE870402023014A02A004F0E6BA47
:104EF000504400205C53445F4149525C4149522E6A
:104F00005458540070B50D46044664210748FBF719
:104F1000E6FC402229460548FBF76AFCA101BDE8F2
:104F200070404023014A02A004F0C8BA5044002057
:104F30005C53445F5232345C5232342E5458540025
:104F400070B50D46044664210748FBF7C8FC4022B3
:104F500029460548FBF74CFCA101BDE87040402301
:104F6000014A02A004F0AABA504400205C53445FF6
:104F70005348495C5348492E5458540070B50D4667
:104F8000044664210848FBF7AAFC24222946064867
:104F9000FBF72EFC04EB8400BDE87040C100282321
:104FA000014A02A004F08ABA504400205C53445FD6
:104FB0005453505C5453502E5458540070B5144CF4
:104FC000144E2046217A457A4089012915D00229BC
:104FD00009D003291BD10EF0C1FC31460EF006FDAD
:104FE00029460DF0EBFAA0890EF0B8FC31460EF020
:104FF000FDFCBDE870400DF0F5BA0EF0AFFC314697
:105000000EF0F4FC2946BDE870400DF0D7BA70BD33
:10501000CC480020CDCCCC3D1148816941F0010144
:1050200081611049202048610F48016821F4005136
:105030000160001F016821F45C4101600A49091DFB
:105040000A680A60091D0A6842F400520A60064AAA
:10505000411410321160016841F400510160704741
:1050600000100240000001400404014008B5002087
:10507000009008F0A1FF07A1002000F07BFA4FF498
:10508000C062694640F20530FFF768FB002800D097
:10509000009808BDCAE4C8EBC3DCC2EB3A000000CC
:1050A0002DE9F04F0746B048884699B0848805A995
:1050B0001691AE480AA9149100260FA9354600EBB7
:1050C000480A00EB47091591B9F8261068462DF8F3
:1050D000161000EB4600BAF826108182B9F81A10B3
:1050E0000185761CBAF81A10F6B281870A2E02D012
:1050F00025B10A2103E000260125FAE7314668467A
:1051000008F056FEDFF868B22BF817000DB10A213F
:1051100000E03146169808F04BFE2BF818000DB150
:105120000A2100E03146149808F042FE904901EB54
:10513000470BABF814000DB10A2100E03146159879
:1051400008F036FE8A49474501EB480117918882ED
:1051500032D10DB10A2100E03146684608F028FE40
:105160000146834820F817100DB10A2100E03146AE
:10517000149808F01DFEABF814007EA140F2012047
:1051800000F0F8F9384609F019FD014640F2026BCB
:1051900000235A4640F2014005F0FEF877A140F2A4
:1051A000092000F0E7F9384609F06EFC01460023BB
:1051B0005A4640F2094063E00DB10A2100E0314651
:1051C000684608F0F5FD6A4921F817000DB10A217B
:1051D00000E03146169808F0EBFD0146644820F8DF
:1051E00018100DB10A2100E03146149808F0E0FDD6
:1051F000ABF814000DB10A2100E03146159808F013
:10520000D7FD179988825BA140F2012000F0B2F926
:105210005CA14FF4806000F0ADF95BA14FF4C06079
:1052200000F0A8F9384609F0C9FC014640F2036BCA
:1052300000235A4640F2024005F0AEF8404609F01D
:10524000BDFC5A46014640F2026B0023584605F069
:10525000A3F84AA140F2092000F08CF9384609F081
:1052600013FC014600235A4640F2094005F094F829
:10527000404609F009FC014600235A4640F2096005
:1052800005F08AF8282009F0B9FC00283FF41CAF8B
:1052900009F002FB112820D00CDC012818D00428CA
:1052A00016D009287FF410AF40F29E7084424DD290
:1052B00064344AE0212845D04128F3D1C82C01D9D3
:1052C000641EA4B2642141200CF04CFB80B33DE08D
:1052D000FDF79EFE19B0BDE8F08F40F60200844253
:1052E00001D2641CA4B2642111200CF03BFB58B124
:1052F0002CE0641CA4B220460EF030FB59460EF0A0
:1053000075FBFEF7BBFF01E0DFF880B00321112041
:105310000CF028FB0028ECD018E0641EA4B2204654
:105320000EF01CFB59460EF061FBFEF7A7FF02E0F2
:10533000FFE7DFF858B0012141200CF013FB0028F3
:10534000EBD003E0DC2C01D9143CA4B220460EF0D3
:1053500005FB0E490EF04AFBFEF790FF02488480E1
:10536000FEF734FAB0E60000CC48002012450020D9
:1053700058480020C1F7C1BF3A000000BCC6D1B9EF
:105380003A000000433A0000443A00000AD7233CA8
:105390000449FF2008600348143801686FF30901CD
:1053A00001607047140401401348816941F0010114
:1053B00081611248012181600021C16010480168AB
:1053C0006FF309010160001F016821F44071016061
:1053D0000B49091D0A6842F0FF020A60091D0A68AC
:1053E00042F0FF020A60064AFF2110321160016894
:1053F00041F0FD01016070470010024000000140D3
:105400000404014010B5FFF7C3FF0348C068BDE8BE
:1054100010400CF017BA00000800002010B5002161
:1054200008480CF0F7F9084C0021E0600548001D21
:105430000CF0F0F9A06003480021BDE810400830EE
:105440000CF02ABADC3E0108080000200F488169F0
:1054500041F004018161816941F0080181610C49D9
:10546000FC2008600B4903200860094810380168D7
:10547000094AC9B21143016006481038016821F099
:105480000F0141F008010160704700000010024068
:1054900010080140100C0140008888880648006808
:1054A0000649C0F38500096801F0010140EA811155
:1054B0007F2088437047000008080140080C014025
:1054C0002DE9F0411D48008907F01AFB80F00041EA
:1054D0001B4800680EF01AFC1A4C1B4D0746294663
:1054E000E0600EF083FA61680EF0CAF8064660606C
:1054F000164938460EF07AFA31460EF0C1F81449D2
:105500000EF074FA06461349A0680EF06FFA3146A1
:105510000EF0B6F81049A060884201DDA16002E0FB
:10552000A84200DAA5600D49A0680EF05FFA0EF0FF
:10553000DDF9BDE8F04180B201F0B8B804450020C3
:105540002C000020940000200AD7A33C0AD7A33BDC
:105550006666663FCDCCCC3DCDCC4C3E0000D846F7
:10556000034A1278012A01D000F0DABF05F048BDE5
:1055700028000020034A1278012A01D001F010B857
:1055800005F080BD2800002008498A6942F0100219
:105590008A6108B1891501E04FF08071044801610A
:1055A000416821F00F01C91C4160704700100240A2
:1055B0000010014070B50C46054600EBC400406881
:1055C000FBF7A0F8C1B235F83400BDE87040FFF732
:1055D000C7BF000070B501880546080ACEB201D0E9
:1055E0007043C6B2696811B10020FFF7C3FF012400
:1055F00009E000BF05EBC400416835F83400FFF74F
:10560000B9FF641CE4B2B442F4D970BD002200F0CA
:1056100033B91346002200F0FFB91346002200F010
:10562000E3BA30B41C461346224630BCAFF30080C8
:105630002DE9FF5F06460C468548318890468588EF
:105640004FF0000B080ACFB230D0784300F0FF0AC9
:105650000CB1544500D9012406EBC409D9F8040063
:10566000FBF750F8C1B236F83400FFF779FF00BFFE
:105670005FEA080000D08047322009F0BFFA002816
:10568000F6D036F83400D9F80410FFF773FF09F0AC
:1056900003F9102847D00BDC0A28DDD2DFE800F040
:1056A00005575B05D205A9052292D5E7BA46CFE793
:1056B000212872D008DC11284FD02028CCD10398A3
:1056C00050EA0B003CD032E0402823D04128C3D11F
:1056D000C82D01D96D1EADB2642141200CF042F9F4
:1056E000A0B379E0039850EA0B0017D003E000BFA5
:1056F000A4EB0A000CE0B4FBF7F007FB104008B97C
:10570000E01BC4B2641CE4B2A6E7E01B00E0E019B1
:10571000C4B2A1E7039830EA0B00ECD1E019C4B29F
:10572000544599D9E4E7039830EA0B0008D0641E89
:10573000E4B2B4FBF7F007FB104000288CD1E6E799
:10574000BC42E2D804EB0A00C4B2DEE731E02046F6
:1057500004B0BDE8F09FFF20FAE740F698008542CC
:1057600001D26D1CADB2642111200CF0FBF858B1D0
:1057700032E06D1CADB228460EF0F0F849460EF04E
:1057800035F9FEF77BFD01E0DFF8C890012111201B
:105790000CF0E8F80028ECD01EE019E06D1EADB268
:1057A00028460EF0DBF849460EF020F9FEF766FDBC
:1057B00001E0DFF8A090012141200CF0D3F800288F
:1057C000ECD009E040F29E70854205D2643502E0DB
:1057D000DC2D01D9143DADB228460EF0BFF81D49AD
:1057E0000EF004F9FEF74AFD19488580FDF7EEFF3B
:1057F00032E74FF4967106200CF0B4F810BB08F0B5
:10580000DBFB09F049F808F0E2FA642008F022FC1A
:1058100008F0DDFA10A140F20120FFF7ABFEFDF722
:1058200061FF0B494FF4E062383140F20550FEF75A
:1058300095FF38B104210CA000F026FD062803D006
:10584000FDF750FF002083E7FDF7C0FFFAE70000F7
:10585000CC4800200AD7233CC7EBCAE4C8EBB3F618
:10586000B3A7B1E0BAC53A00CAC7B7F1B1A3B4E66D
:10587000B1E0BAC53F0000002DE9F05F0C46DFF84B
:1058800090B101880646BBF804509046080ACFB292
:1058900030D0784300F0FF0A0CB1544500D9012400
:1058A00006EBC409D9F80400FAF72CFFC1B236F8A8
:1058B0003400FFF755FE00BF5FEA080000D08047C4
:1058C000322009F09BF90028F6D036F83400D9F8D8
:1058D0000410FFF74FFE08F0DFFF10283DD00BDC6F
:1058E0000A28DDD2DFE800F005404505430505053F
:1058F000277DD5E7BA46CFE7212878D00DDC1128DF
:1059000039D02028CCD1641EE4B2B4FBF7F007FBF9
:1059100010400028C4D1E0191DE0402815D04128CE
:10592000BED1C82D01D96D1EADB2642141200CF04D
:1059300019F8B8B35FE0B4FBF7F007FB104008B903
:10594000E01BC4B2641CE4B2AAE7E019C4B2544537
:10595000A6D9A4EB0A00C4B2A2E7BC4202D804EB69
:105960000A00C4B2E01BF6E72046BDE8F09F002025
:10597000FBE7FF20F9E740F60200854201D26D1CEB
:10598000ADB2642111200BF0EDFF60B133E06D1C6E
:10599000ADB228460DF0E2FF49460EF027F8FEF7BB
:1059A0006DFC02E013E0DFF86C90032111200BF096
:1059B000D9FF0028EBD01EE06D1EADB228460DF0D9
:1059C000CDFF49460EF012F8FEF758FC01E0DFF873
:1059D0004490012141200BF0C5FF0028ECD00AE0E3
:1059E00005E040F29E70854205D2643502E0DC2D70
:1059F00001D9143DADB228460DF0B0FF05490DF0B8
:105A0000F5FFFEF73BFCABF80450FDF7DFFE47E780
:105A1000CC4800200AD7233C2DE9FF5F06460C4600
:105A20006F483188904685884FF0000B080ACFB246
:105A300030D0784300F0FF0A0CB1544500D901245E
:105A400006EBC409D9F80400FAF75CFEC1B236F8D7
:105A50003400FFF785FD00BF5FEA080000D08047F3
:105A6000322009F0CBF80028F6D036F83400D9F807
:105A70000410FFF77FFD08F00FFF102847D00BDC64
:105A80000A28DDD2DFE800F005575D055B05050556
:105A90002294D5E7BA46CFE7212874D008DC112834
:105AA00051D02028CCD1039850EA0B003CD032E0F2
:105AB000402823D04128C3D1C82D01D96D1EADB2D5
:105AC000642141200BF04EFFA0B37BE0039850EA25
:105AD0000B0017D003E000BFA4EB0A000CE0B4FBFE
